{
    "abi": [
        {
            "inputs": [],
            "stateMutability": "nonpayable",
            "type": "constructor"
        },
        {
            "anonymous": false,
            "inputs": [
                {
                    "indexed": false,
                    "internalType": "address",
                    "name": "oldValue",
                    "type": "address"
                },
                {
                    "indexed": false,
                    "internalType": "address",
                    "name": "newValue",
                    "type": "address"
                }
            ],
            "name": "DeveloperChange",
            "type": "event"
        },
        {
            "anonymous": false,
            "inputs": [
                {
                    "indexed": false,
                    "internalType": "address",
                    "name": "pool",
                    "type": "address"
                },
                {
                    "indexed": false,
                    "internalType": "uint256[]",
                    "name": "params1",
                    "type": "uint256[]"
                },
                {
                    "indexed": false,
                    "internalType": "uint256[]",
                    "name": "params2",
                    "type": "uint256[]"
                },
                {
                    "indexed": false,
                    "internalType": "uint256[]",
                    "name": "params3",
                    "type": "uint256[]"
                }
            ],
            "name": "InterestChange",
            "type": "event"
        },
        {
            "anonymous": false,
            "inputs": [
                {
                    "indexed": false,
                    "internalType": "bytes32",
                    "name": "key",
                    "type": "bytes32"
                },
                {
                    "indexed": false,
                    "internalType": "uint256",
                    "name": "value",
                    "type": "uint256"
                }
            ],
            "name": "ParameterChange",
            "type": "event"
        },
        {
            "anonymous": false,
            "inputs": [
                {
                    "indexed": false,
                    "internalType": "address",
                    "name": "pool",
                    "type": "address"
                },
                {
                    "indexed": false,
                    "internalType": "bytes32",
                    "name": "key",
                    "type": "bytes32"
                },
                {
                    "indexed": false,
                    "internalType": "uint256",
                    "name": "value",
                    "type": "uint256"
                }
            ],
            "name": "PoolParameterChange",
            "type": "event"
        },
        {
            "anonymous": false,
            "inputs": [
                {
                    "indexed": false,
                    "internalType": "address",
                    "name": "token",
                    "type": "address"
                },
                {
                    "indexed": false,
                    "internalType": "uint256",
                    "name": "value",
                    "type": "uint256"
                }
            ],
            "name": "PriceChange",
            "type": "event"
        },
        {
            "inputs": [],
            "name": "DAY",
            "outputs": [
                {
                    "internalType": "uint256",
                    "name": "",
                    "type": "uint256"
                }
            ],
            "stateMutability": "view",
            "type": "function"
        },
        {
            "inputs": [],
            "name": "HOUR",
            "outputs": [
                {
                    "internalType": "uint256",
                    "name": "",
                    "type": "uint256"
                }
            ],
            "stateMutability": "view",
            "type": "function"
        },
        {
            "inputs": [],
            "name": "WETH",
            "outputs": [
                {
                    "internalType": "address",
                    "name": "",
                    "type": "address"
                }
            ],
            "stateMutability": "view",
            "type": "function"
        },
        {
            "inputs": [
                {
                    "internalType": "address",
                    "name": "pool",
                    "type": "address"
                },
                {
                    "internalType": "uint256",
                    "name": "totalBorrow",
                    "type": "uint256"
                },
                {
                    "internalType": "uint256",
                    "name": "totalSupply",
                    "type": "uint256"
                }
            ],
            "name": "calculateInterestRate",
            "outputs": [
                {
                    "internalType": "uint256",
                    "name": "",
                    "type": "uint256"
                }
            ],
            "stateMutability": "view",
            "type": "function"
        },
        {
            "inputs": [
                {
                    "internalType": "address",
                    "name": "_developer",
                    "type": "address"
                }
            ],
            "name": "changeDeveloper",
            "outputs": [],
            "stateMutability": "nonpayable",
            "type": "function"
        },
        {
            "inputs": [
                {
                    "internalType": "address",
                    "name": "_fromToken",
                    "type": "address"
                },
                {
                    "internalType": "address",
                    "name": "_toToken",
                    "type": "address"
                },
                {
                    "internalType": "uint256",
                    "name": "_fromAmount",
                    "type": "uint256"
                }
            ],
            "name": "convertTokenAmount",
            "outputs": [
                {
                    "internalType": "uint256",
                    "name": "toAmount",
                    "type": "uint256"
                }
            ],
            "stateMutability": "view",
            "type": "function"
        },
        {
            "inputs": [],
            "name": "developer",
            "outputs": [
                {
                    "internalType": "address",
                    "name": "",
                    "type": "address"
                }
            ],
            "stateMutability": "view",
            "type": "function"
        },
        {
            "inputs": [
                {
                    "internalType": "bytes32",
                    "name": "_key",
                    "type": "bytes32"
                }
            ],
            "name": "getParams",
            "outputs": [
                {
                    "internalType": "uint256",
                    "name": "",
                    "type": "uint256"
                },
                {
                    "internalType": "uint256",
                    "name": "",
                    "type": "uint256"
                },
                {
                    "internalType": "uint256",
                    "name": "",
                    "type": "uint256"
                },
                {
                    "internalType": "uint256",
                    "name": "",
                    "type": "uint256"
                }
            ],
            "stateMutability": "view",
            "type": "function"
        },
        {
            "inputs": [
                {
                    "internalType": "address",
                    "name": "_pool",
                    "type": "address"
                },
                {
                    "internalType": "bytes32",
                    "name": "_key",
                    "type": "bytes32"
                }
            ],
            "name": "getPoolParams",
            "outputs": [
                {
                    "internalType": "uint256",
                    "name": "",
                    "type": "uint256"
                },
                {
                    "internalType": "uint256",
                    "name": "",
                    "type": "uint256"
                },
                {
                    "internalType": "uint256",
                    "name": "",
                    "type": "uint256"
                },
                {
                    "internalType": "uint256",
                    "name": "",
                    "type": "uint256"
                }
            ],
            "stateMutability": "view",
            "type": "function"
        },
        {
            "inputs": [
                {
                    "internalType": "address",
                    "name": "_pool",
                    "type": "address"
                },
                {
                    "internalType": "bytes32",
                    "name": "_key",
                    "type": "bytes32"
                }
            ],
            "name": "getPoolValue",
            "outputs": [
                {
                    "internalType": "uint256",
                    "name": "",
                    "type": "uint256"
                }
            ],
            "stateMutability": "view",
            "type": "function"
        },
        {
            "inputs": [
                {
                    "internalType": "bytes32",
                    "name": "_key",
                    "type": "bytes32"
                }
            ],
            "name": "getValue",
            "outputs": [
                {
                    "internalType": "uint256",
                    "name": "",
                    "type": "uint256"
                }
            ],
            "stateMutability": "view",
            "type": "function"
        },
        {
            "inputs": [],
            "name": "governor",
            "outputs": [
                {
                    "internalType": "address",
                    "name": "",
                    "type": "address"
                }
            ],
            "stateMutability": "view",
            "type": "function"
        },
        {
            "inputs": [
                {
                    "internalType": "bytes32",
                    "name": "",
                    "type": "bytes32"
                }
            ],
            "name": "hasInit",
            "outputs": [
                {
                    "internalType": "bool",
                    "name": "",
                    "type": "bool"
                }
            ],
            "stateMutability": "view",
            "type": "function"
        },
        {
            "inputs": [
                {
                    "internalType": "bytes32",
                    "name": "",
                    "type": "bytes32"
                },
                {
                    "internalType": "address",
                    "name": "",
                    "type": "address"
                }
            ],
            "name": "hasInitPool",
            "outputs": [
                {
                    "internalType": "bool",
                    "name": "",
                    "type": "bool"
                }
            ],
            "stateMutability": "view",
            "type": "function"
        },
        {
            "inputs": [
                {
                    "internalType": "address",
                    "name": "_platform",
                    "type": "address"
                },
                {
                    "internalType": "address",
                    "name": "_poolFactory",
                    "type": "address"
                },
                {
                    "internalType": "address",
                    "name": "_pairFactory",
                    "type": "address"
                },
                {
                    "internalType": "address",
                    "name": "_governor",
                    "type": "address"
                },
                {
                    "internalType": "address",
                    "name": "_WETH",
                    "type": "address"
                },
                {
                    "internalType": "address",
                    "name": "_platformToken",
                    "type": "address"
                },
                {
                    "internalType": "address",
                    "name": "_mainReward",
                    "type": "address"
                }
            ],
            "name": "initialize",
            "outputs": [],
            "stateMutability": "nonpayable",
            "type": "function"
        },
        {
            "inputs": [
                {
                    "internalType": "address",
                    "name": "",
                    "type": "address"
                },
                {
                    "internalType": "uint256",
                    "name": "",
                    "type": "uint256"
                }
            ],
            "name": "interestParams",
            "outputs": [
                {
                    "internalType": "uint256",
                    "name": "base",
                    "type": "uint256"
                },
                {
                    "internalType": "uint256",
                    "name": "position",
                    "type": "uint256"
                },
                {
                    "internalType": "uint256",
                    "name": "ratio",
                    "type": "uint256"
                },
                {
                    "internalType": "uint256",
                    "name": "positive",
                    "type": "uint256"
                }
            ],
            "stateMutability": "view",
            "type": "function"
        },
        {
            "inputs": [],
            "name": "lastPriceBlock",
            "outputs": [
                {
                    "internalType": "uint256",
                    "name": "",
                    "type": "uint256"
                }
            ],
            "stateMutability": "view",
            "type": "function"
        },
        {
            "inputs": [],
            "name": "mainReward",
            "outputs": [
                {
                    "internalType": "address",
                    "name": "",
                    "type": "address"
                }
            ],
            "stateMutability": "view",
            "type": "function"
        },
        {
            "inputs": [],
            "name": "owner",
            "outputs": [
                {
                    "internalType": "address",
                    "name": "",
                    "type": "address"
                }
            ],
            "stateMutability": "view",
            "type": "function"
        },
        {
            "inputs": [],
            "name": "pairFactory",
            "outputs": [
                {
                    "internalType": "address",
                    "name": "",
                    "type": "address"
                }
            ],
            "stateMutability": "view",
            "type": "function"
        },
        {
            "inputs": [
                {
                    "internalType": "bytes32",
                    "name": "",
                    "type": "bytes32"
                }
            ],
            "name": "params",
            "outputs": [
                {
                    "internalType": "uint256",
                    "name": "min",
                    "type": "uint256"
                },
                {
                    "internalType": "uint256",
                    "name": "max",
                    "type": "uint256"
                },
                {
                    "internalType": "uint256",
                    "name": "span",
                    "type": "uint256"
                },
                {
                    "internalType": "uint256",
                    "name": "value",
                    "type": "uint256"
                }
            ],
            "stateMutability": "view",
            "type": "function"
        },
        {
            "inputs": [],
            "name": "platform",
            "outputs": [
                {
                    "internalType": "address",
                    "name": "",
                    "type": "address"
                }
            ],
            "stateMutability": "view",
            "type": "function"
        },
        {
            "inputs": [],
            "name": "platformToken",
            "outputs": [
                {
                    "internalType": "address",
                    "name": "",
                    "type": "address"
                }
            ],
            "stateMutability": "view",
            "type": "function"
        },
        {
            "inputs": [],
            "name": "poolFactory",
            "outputs": [
                {
                    "internalType": "address",
                    "name": "",
                    "type": "address"
                }
            ],
            "stateMutability": "view",
            "type": "function"
        },
        {
            "inputs": [
                {
                    "internalType": "address",
                    "name": "",
                    "type": "address"
                },
                {
                    "internalType": "bytes32",
                    "name": "",
                    "type": "bytes32"
                }
            ],
            "name": "poolParams",
            "outputs": [
                {
                    "internalType": "uint256",
                    "name": "min",
                    "type": "uint256"
                },
                {
                    "internalType": "uint256",
                    "name": "max",
                    "type": "uint256"
                },
                {
                    "internalType": "uint256",
                    "name": "span",
                    "type": "uint256"
                },
                {
                    "internalType": "uint256",
                    "name": "value",
                    "type": "uint256"
                }
            ],
            "stateMutability": "view",
            "type": "function"
        },
        {
            "inputs": [
                {
                    "internalType": "address",
                    "name": "",
                    "type": "address"
                }
            ],
            "name": "prices",
            "outputs": [
                {
                    "internalType": "uint256",
                    "name": "",
                    "type": "uint256"
                }
            ],
            "stateMutability": "view",
            "type": "function"
        },
        {
            "inputs": [
                {
                    "internalType": "address",
                    "name": "pool",
                    "type": "address"
                },
                {
                    "internalType": "uint256[]",
                    "name": "params1",
                    "type": "uint256[]"
                },
                {
                    "internalType": "uint256[]",
                    "name": "params2",
                    "type": "uint256[]"
                },
                {
                    "internalType": "uint256[]",
                    "name": "params3",
                    "type": "uint256[]"
                }
            ],
            "name": "setInterestParams",
            "outputs": [],
            "stateMutability": "nonpayable",
            "type": "function"
        },
        {
            "inputs": [
                {
                    "internalType": "bytes32",
                    "name": "_key",
                    "type": "bytes32"
                },
                {
                    "internalType": "uint256",
                    "name": "_min",
                    "type": "uint256"
                },
                {
                    "internalType": "uint256",
                    "name": "_max",
                    "type": "uint256"
                },
                {
                    "internalType": "uint256",
                    "name": "_span",
                    "type": "uint256"
                },
                {
                    "internalType": "uint256",
                    "name": "_value",
                    "type": "uint256"
                }
            ],
            "name": "setParams",
            "outputs": [],
            "stateMutability": "nonpayable",
            "type": "function"
        },
        {
            "inputs": [
                {
                    "internalType": "address",
                    "name": "_pool",
                    "type": "address"
                },
                {
                    "internalType": "bytes32",
                    "name": "_key",
                    "type": "bytes32"
                },
                {
                    "internalType": "uint256",
                    "name": "_min",
                    "type": "uint256"
                },
                {
                    "internalType": "uint256",
                    "name": "_max",
                    "type": "uint256"
                },
                {
                    "internalType": "uint256",
                    "name": "_span",
                    "type": "uint256"
                },
                {
                    "internalType": "uint256",
                    "name": "_value",
                    "type": "uint256"
                }
            ],
            "name": "setPoolParams",
            "outputs": [],
            "stateMutability": "nonpayable",
            "type": "function"
        },
        {
            "inputs": [
                {
                    "internalType": "address",
                    "name": "_pool",
                    "type": "address"
                },
                {
                    "internalType": "bytes32",
                    "name": "_key",
                    "type": "bytes32"
                },
                {
                    "internalType": "uint256",
                    "name": "_value",
                    "type": "uint256"
                }
            ],
            "name": "setPoolValue",
            "outputs": [],
            "stateMutability": "nonpayable",
            "type": "function"
        },
        {
            "inputs": [
                {
                    "internalType": "address[]",
                    "name": "_tokens",
                    "type": "address[]"
                },
                {
                    "internalType": "uint256[]",
                    "name": "_prices",
                    "type": "uint256[]"
                }
            ],
            "name": "setTokenPrice",
            "outputs": [],
            "stateMutability": "nonpayable",
            "type": "function"
        },
        {
            "inputs": [
                {
                    "internalType": "bytes32",
                    "name": "_key",
                    "type": "bytes32"
                },
                {
                    "internalType": "uint256",
                    "name": "_value",
                    "type": "uint256"
                }
            ],
            "name": "setValue",
            "outputs": [],
            "stateMutability": "nonpayable",
            "type": "function"
        },
        {
            "inputs": [
                {
                    "internalType": "bytes32[]",
                    "name": "_names",
                    "type": "bytes32[]"
                },
                {
                    "internalType": "address[]",
                    "name": "_wallets",
                    "type": "address[]"
                }
            ],
            "name": "setWallets",
            "outputs": [],
            "stateMutability": "nonpayable",
            "type": "function"
        },
        {
            "inputs": [],
            "name": "swapper",
            "outputs": [
                {
                    "internalType": "address",
                    "name": "",
                    "type": "address"
                }
            ],
            "stateMutability": "view",
            "type": "function"
        },
        {
            "inputs": [
                {
                    "internalType": "bytes32",
                    "name": "",
                    "type": "bytes32"
                }
            ],
            "name": "wallets",
            "outputs": [
                {
                    "internalType": "address",
                    "name": "",
                    "type": "address"
                }
            ],
            "stateMutability": "view",
            "type": "function"
        }
    ],
    "evm": {
        "bytecode": {
            "linkReferences": {},
            "object": "6080604052611900600b5561010b600c5534801561001c57600080fd5b5060008054336001600160a01b03199182168117909255600480549091169091179055466001811461005557617080600b556104b0600c555b50612145806100656000396000f3fe608060405234801561001057600080fd5b50600436106102115760003560e01c80638da5cb5b11610125578063cfed246b116100ad578063e14f870d1161007c578063e14f870d14610419578063e84e5a9d14610421578063e9f84ad414610434578063f435b0cf14610447578063f59ad48a1461045a57610211565b8063cfed246b146103e3578063d1b812cd146103f6578063d83062b4146103fe578063dc6ab5271461040657610211565b8063a87122f5116100f4578063a87122f51461039a578063ad5c4648146103ad578063ae42be79146103b5578063c6756f69146103c8578063ca4b208b146103db57610211565b80638da5cb5b146103645780639d89ec4b1461036c5780639ee7f7021461037f578063a39dc9be1461039257610211565b806339701c0a116101a857806360e9f1dd1161017757806360e9f1dd1461030557806369843940146103185780636b26f13b1461032b5780636cfd19ea1461033e57806375a356cc1461035157610211565b806339701c0a146102cf5780634219dc40146102e25780634bde38c8146102ea5780634f07f403146102f257610211565b80632b03da3c116101e45780632b03da3c1461027c5780632b3297f91461029f57806331119b4d146102a757806335876476146102bc57610211565b80630c340a241461021657806313feefc2146102345780631b5e40ec1461024757806327cfe85614610267575b600080fd5b61021e610462565b60405161022b9190611d82565b60405180910390f35b61021e610242366004611c85565b610471565b61025a610255366004611c9d565b61048c565b60405161022b9190611e3e565b61026f6104ac565b60405161022b91906120d3565b61028f61028a366004611c85565b6104b2565b60405161022b94939291906120dc565b61021e61050f565b6102ba6102b53660046119a3565b61051e565b005b6102ba6102ca3660046119be565b6105c6565b6102ba6102dd366004611c59565b610683565b61021e610763565b61021e610772565b61026f610300366004611b29565b610781565b6102ba610313366004611b53565b6107f2565b61026f610326366004611c85565b610898565b61028f610339366004611b29565b6108dc565b6102ba61034c366004611ccc565b610913565b61026f61035f366004611a53565b6109d7565b61021e610bb7565b6102ba61037a366004611a93565b610bc6565b61026f61038d366004611bd2565b610e91565b61026f611010565b6102ba6103a8366004611b87565b611016565b61021e611095565b61025a6103c3366004611c85565b6110a4565b6102ba6103d6366004611ced565b6110b9565b61021e61112f565b61026f6103f13660046119a3565b61113e565b61021e611150565b61021e61115f565b61028f610414366004611c85565b61116e565b61021e611195565b6102ba61042f366004611bf0565b6111a4565b61028f610442366004611b29565b6114be565b61028f610455366004611b29565b611530565b61026f611562565b6005546001600160a01b031681565b600f602052600090815260409020546001600160a01b031681565b601260209081526000928352604080842090915290825290205460ff1681565b600b5481565b6000806000806104c0611888565b50505060009283525050600e6020908152604091829020825160808101845281548082526001830154938201849052600283015494820185905260039092015460609091018190529093919291565b6006546001600160a01b031681565b6004546000546001600160a01b03918216911633148061054857506004546001600160a01b031633145b61056d5760405162461bcd60e51b815260040161056490611ee1565b60405180910390fd5b600480546001600160a01b0319166001600160a01b0384161790556040517f982e83ce54c5910af91e9e631dbfd41493870cb9abffbafdd53e17fb48894996906105ba9083908590611d96565b60405180910390a15050565b6000546001600160a01b03163314806105e957506004546001600160a01b031633145b6106055760405162461bcd60e51b815260040161056490611ee1565b600380546001600160a01b03199081166001600160a01b03998a1617909155600180548216978916979097179096556002805487169588169590951790945560058054861693871693909317909255600880548516918616919091179055600780548416918516919091179055600980549092169216919091179055565b6000546001600160a01b03163314806106a657506004546001600160a01b031633145b6106c25760405162461bcd60e51b815260040161056490611f48565b8281146106e15760405162461bcd60e51b815260040161056490611fad565b60005b8381101561075c578282828181106106f857fe5b905060200201602081019061070d91906119a3565b600f600087878581811061071d57fe5b6020908102929092013583525081019190915260400160002080546001600160a01b0319166001600160a01b03929092169190911790556001016106e4565b5050505050565b6001546001600160a01b031681565b6003546001600160a01b031681565b60008181526012602090815260408083206001600160a01b038616845290915281205460ff166107c35760405162461bcd60e51b815260040161056490611eaa565b506001600160a01b0382166000908152600d602090815260408083208484529091529020600301545b92915050565b6000546001600160a01b031633148061081557506005546001600160a01b031633145b8061082a57506003546001600160a01b031633145b8061083f57506004546001600160a01b031633145b61085b5760405162461bcd60e51b815260040161056490612051565b60008281526012602090815260408083206001600160a01b03871684529091529020805460ff19166001179055610893838383611568565b505050565b60008181526011602052604081205460ff166108c65760405162461bcd60e51b815260040161056490612025565b506000908152600e602052604090206003015490565b601360205281600052604060002081600381106108f557fe5b60040201805460018201546002830154600390930154919450925084565b6000546001600160a01b031633148061093657506005546001600160a01b031633145b8061094b57506003546001600160a01b031633145b8061096057506004546001600160a01b031633145b61097c5760405162461bcd60e51b815260040161056490611f48565b6000828152600e60209081526040808320600301849055601190915290819020805460ff19166001179055517fa7f64e425251323affbee8e5836affcdc8adfa374a7e9eb294efb263f82aa606906105ba9084908490611e49565b6001600160a01b038084166000908152601060205260408082205492851682528120549091908115801590610a0c5750600081115b610a285760405162461bcd60e51b8152600401610564906120a8565b6000866001600160a01b031663313ce5676040518163ffffffff1660e01b815260040160206040518083038186803b158015610a6357600080fd5b505afa158015610a77573d6000803e3d6000fd5b505050506040513d601f19601f82011682018060405250810190610a9b9190611d27565b90506000866001600160a01b031663313ce5676040518163ffffffff1660e01b815260040160206040518083038186803b158015610ad857600080fd5b505afa158015610aec573d6000803e3d6000fd5b505050506040513d601f19601f82011682018060405250810190610b109190611d27565b9050610b3283610b26888763ffffffff6115d216565b9063ffffffff61160c16565b94508060ff168260ff161115610b7257610b6b610b5b60ff84811690841663ffffffff61164e16565b8690600a0a63ffffffff61160c16565b9450610bac565b8160ff168160ff161115610bac57610ba9610b9960ff83811690851663ffffffff61164e16565b8690600a0a63ffffffff6115d216565b94505b505050509392505050565b6000546001600160a01b031681565b6000546001600160a01b0316331480610be957506005546001600160a01b031633145b80610bfe57506004546001600160a01b031633145b610c1a5760405162461bcd60e51b815260040161056490612051565b825160041415610cd457604051806080016040528084600081518110610c3c57fe5b6020026020010151815260200184600181518110610c5657fe5b6020026020010151815260200184600281518110610c7057fe5b6020026020010151815260200184600381518110610c8a57fe5b6020908102919091018101519091526001600160a01b0386166000908152601382526040908190208351815591830151600183015582015160028201556060909101516003909101555b815160041415610d9157604051806080016040528083600081518110610cf657fe5b6020026020010151815260200183600181518110610d1057fe5b6020026020010151815260200183600281518110610d2a57fe5b6020026020010151815260200183600381518110610d4457fe5b6020908102919091018101519091526001600160a01b0386166000908152601382526040908190208351600482015591830151600583015582015160068201556060909101516007909101555b805160041415610e4e57604051806080016040528082600081518110610db357fe5b6020026020010151815260200182600181518110610dcd57fe5b6020026020010151815260200182600281518110610de757fe5b6020026020010151815260200182600381518110610e0157fe5b6020908102919091018101519091526001600160a01b03861660009081526013825260409081902083516008820155918301516009830155820151600a820155606090910151600b909101555b7f9c3781d8027bbde4138e3a4daa4055ccc3aa440cf5c3211af9f30661b066298784848484604051610e839493929190611db0565b60405180910390a150505050565b6000805b600381101561100757610ea6611888565b6001600160a01b03861660009081526013602052604090208260038110610ec957fe5b60040201604051806080016040529081600082015481526020016001820154815260200160028201548152602001600382015481525050905080602001518402856127100211610ffe576000851580610f20575084155b610f5c57610f5785610b26670de0b6b3a7640000610f4b8a87604001516115d290919063ffffffff16565b9063ffffffff6115d216565b610f5f565b60005b90508160600151600114610fb357610fae600b54610b2661016d610b26612710610b26610fa1670de0b6b3a76400008a600001516115d290919063ffffffff16565b889063ffffffff61164e16565b610ff4565b610ff4600b54610b2661016d610b26612710610b26610fe7670de0b6b3a76400008a600001516115d290919063ffffffff16565b889063ffffffff61169016565b9350505050611009565b50600101610e95565b505b9392505050565b600c5481565b6000546001600160a01b031633148061103957506005546001600160a01b031633145b8061104e57506003546001600160a01b031633145b8061106357506004546001600160a01b031633145b61107f5760405162461bcd60e51b815260040161056490612051565b61108d8686868686866116b5565b505050505050565b6008546001600160a01b031681565b60116020526000908152604090205460ff1681565b6000546001600160a01b03163314806110dc57506005546001600160a01b031633145b806110f157506003546001600160a01b031633145b8061110657506004546001600160a01b031633145b6111225760405162461bcd60e51b815260040161056490612051565b61075c8585858585611751565b6004546001600160a01b031681565b60106020526000908152604090205481565b6007546001600160a01b031681565b6009546001600160a01b031681565b600e6020526000908152604090208054600182015460028301546003909301549192909184565b6002546001600160a01b031681565b600e6020527f8fc2e8690407e72047a336ff3b97a693a3f3d06b53e68867d6363c1f59d2262b547310d2105391d157d4149250d157d4115490d1539560621b6000527fe8bfeb1f5b41f435954928f3f356d22432c72a4be6a5b562cfaac6e642e7638b54600a5461121b908363ffffffff61169016565b43101561123a5760405162461bcd60e51b81526004016105649061207a565b64707269636560d81b600052600f6020527f5a6043839bd1363e1698899e1c9b9591b5cad9dccce5474dadd357959eaaaa4e546001600160a01b031633146112945760405162461bcd60e51b815260040161056490611ee1565b8483146112b35760405162461bcd60e51b815260040161056490611f76565b60005b858110156114b157601060008888848181106112ce57fe5b90506020020160208101906112e391906119a3565b6001600160a01b031681526020810191909152604001600020546113425761133d87878381811061131057fe5b905060200201602081019061132591906119a3565b86868481811061133157fe5b905060200201356117d8565b6114a9565b60006010600089898581811061135457fe5b905060200201602081019061136991906119a3565b6001600160a01b03166001600160a01b031681526020019081526020016000205490508086868481811061139957fe5b9050602002013511156114325760006113ce6113c1612710610b26858863ffffffff6115d216565b839063ffffffff61169016565b905061142c8989858181106113df57fe5b90506020020160208101906113f491906119a3565b8289898781811061140157fe5b90506020020135116114255788888681811061141957fe5b90506020020135611427565b825b6117d8565b506114a7565b600061145a61144d612710610b26858863ffffffff6115d216565b839063ffffffff61164e16565b90506114a589898581811061146b57fe5b905060200201602081019061148091906119a3565b8289898781811061148d57fe5b90506020020135106114255788888681811061141957fe5b505b505b6001016112b6565b505043600a555050505050565b6000806000806114cc611888565b505050506001600160a01b03929092166000908152600d602090815260408083209383529281529082902082516080810184528154808252600183015493820184905260028301549482018590526003909201546060909101819052909491935090565b600d60209081526000928352604080842090915290825290208054600182015460028301546003909301549192909184565b600a5481565b6001600160a01b0383166000908152600d6020908152604080832085845290915290819020600301829055517f80c7bc50a3b728db2aedeb4af1b647e8beca4313a5afa10451af90bd46afb3f0906115c590859085908590611e04565b60405180910390a1505050565b6000826115e1575060006107ec565b828202828482816115ee57fe5b04146110095760405162461bcd60e51b815260040161056490611fe4565b600061100983836040518060400160405280601a81526020017f536166654d6174683a206469766973696f6e206279207a65726f000000000000815250611825565b600061100983836040518060400160405280601e81526020017f536166654d6174683a207375627472616374696f6e206f766572666c6f77000081525061185c565b6000828201838110156110095760405162461bcd60e51b815260040161056490611f11565b604080516080810182528581526020808201868152828401868152606084018681526001600160a01b038c166000908152600d85528681208c825290945292859020935184559051600184015551600283015551600390910155517f80c7bc50a3b728db2aedeb4af1b647e8beca4313a5afa10451af90bd46afb3f09061174190889088908590611e04565b60405180910390a1505050505050565b6040805160808101825285815260208082018681528284018681526060840186815260008b8152600e90945292859020935184559051600184015551600283015551600390910155517fa7f64e425251323affbee8e5836affcdc8adfa374a7e9eb294efb263f82aa606906117c99087908490611e49565b60405180910390a15050505050565b6001600160a01b03821660009081526010602052604090819020829055517ffb97d390102d99a2a0210c7da4d6e15528ca897324a726106755393058ae2719906105ba9084908490611e25565b600081836118465760405162461bcd60e51b81526004016105649190611e57565b50600083858161185257fe5b0495945050505050565b600081848411156118805760405162461bcd60e51b81526004016105649190611e57565b505050900390565b6040518060800160405280600081526020016000815260200160008152602001600081525090565b80356001600160a01b03811681146107ec57600080fd5b60008083601f8401126118d8578182fd5b50813567ffffffffffffffff8111156118ef578182fd5b602083019150836020808302850101111561190957600080fd5b9250929050565b600082601f830112611920578081fd5b813567ffffffffffffffff80821115611937578283fd5b602080830260405182828201018181108582111715611954578687fd5b60405284815294508185019250858201818701830188101561197557600080fd5b600091505b8482101561199857803584529282019260019190910190820161197a565b505050505092915050565b6000602082840312156119b4578081fd5b61100983836118b0565b600080600080600080600060e0888a0312156119d8578283fd5b87356119e3816120f7565b965060208801356119f3816120f7565b95506040880135611a03816120f7565b94506060880135611a13816120f7565b93506080880135611a23816120f7565b925060a0880135611a33816120f7565b915060c0880135611a43816120f7565b8091505092959891949750929550565b600080600060608486031215611a67578283fd5b8335611a72816120f7565b92506020840135611a82816120f7565b929592945050506040919091013590565b60008060008060808587031215611aa8578384fd5b611ab286866118b0565b9350602085013567ffffffffffffffff80821115611ace578485fd5b611ada88838901611910565b94506040870135915080821115611aef578384fd5b611afb88838901611910565b93506060870135915080821115611b10578283fd5b50611b1d87828801611910565b91505092959194509250565b60008060408385031215611b3b578182fd5b611b4584846118b0565b946020939093013593505050565b600080600060608486031215611b67578283fd5b8335611b72816120f7565b95602085013595506040909401359392505050565b60008060008060008060c08789031215611b9f578182fd5b8635611baa816120f7565b9860208801359850604088013597606081013597506080810135965060a00135945092505050565b600080600060608486031215611be6578283fd5b611b7285856118b0565b60008060008060408587031215611c05578384fd5b843567ffffffffffffffff80821115611c1c578586fd5b611c28888389016118c7565b90965094506020870135915080821115611c40578384fd5b50611c4d878288016118c7565b95989497509550505050565b60008060008060408587031215611c6e578182fd5b843567ffffffffffffffff80821115611c1c578384fd5b600060208284031215611c96578081fd5b5035919050565b60008060408385031215611caf578182fd5b823591506020830135611cc1816120f7565b809150509250929050565b60008060408385031215611cde578182fd5b50508035926020909101359150565b600080600080600060a08688031215611d04578283fd5b505083359560208501359550604085013594606081013594506080013592509050565b600060208284031215611d38578081fd5b815160ff81168114611009578182fd5b6000815180845260208085019450808401835b83811015611d7757815187529582019590820190600101611d5b565b509495945050505050565b6001600160a01b0391909116815260200190565b6001600160a01b0392831681529116602082015260400190565b6001600160a01b0385168152608060208201819052600090611dd490830186611d48565b8281036040840152611de68186611d48565b8381036060850152611df88186611d48565b98975050505050505050565b6001600160a01b039390931683526020830191909152604082015260600190565b6001600160a01b03929092168252602082015260400190565b901515815260200190565b918252602082015260400190565b6000602080835283518082850152825b81811015611e8357858101830151858201604001528201611e67565b81811115611e945783604083870101525b50601f01601f1916929092016040019392505050565b60208082526017908201527f504f4f4c2056414c554520484153204e4f5420494e4954000000000000000000604082015260600190565b6020808252601690820152752130b1b59d1021b7b73334b3902327a92124a22222a760511b604082015260600190565b6020808252601b908201527f536166654d6174683a206164646974696f6e206f766572666c6f770000000000604082015260600190565b6020808252601490820152732130b1b59d1027a7262c902222ab22a627a822a960611b604082015260600190565b6020808252601c908201527f4261636b3a20505249434553204c454e475448204d49534d4154434800000000604082015260600190565b6020808252601d908201527f4261636b3a2057414c4c455453204c454e475448204d49534d41544348000000604082015260600190565b60208082526021908201527f536166654d6174683a206d756c7469706c69636174696f6e206f766572666c6f6040820152607760f81b606082015260800190565b602080825260129082015271159053155148121054c81393d5081253925560721b604082015260600190565b6020808252600f908201526e2130b1b59d102327a92124a22222a760891b604082015260600190565b6020808252601490820152732130b1b59d10283934b1b290223ab930ba34b7b760611b604082015260600190565b6020808252601190820152705052494345204e4f5420534554204e4f5760781b604082015260600190565b90815260200190565b93845260208401929092526040830152606082015260800190565b6001600160a01b038116811461210c57600080fd5b5056fea2646970667358221220ffc6c98aa182eef35f04fa255f062f1cd898d48b5b5577f7704c341edf615cf764736f6c63430006080033",
            "opcodes": "PUSH1 0x80 PUSH1 0x40 MSTORE PUSH2 0x1900 PUSH1 0xB SSTORE PUSH2 0x10B PUSH1 0xC SSTORE CALLVALUE DUP1 ISZERO PUSH2 0x1C JUMPI PUSH1 0x0 DUP1 REVERT JUMPDEST POP PUSH1 0x0 DUP1 SLOAD CALLER PUSH1 0x1 PUSH1 0x1 PUSH1 0xA0 SHL SUB NOT SWAP2 DUP3 AND DUP2 OR SWAP1 SWAP3 SSTORE PUSH1 0x4 DUP1 SLOAD SWAP1 SWAP2 AND SWAP1 SWAP2 OR SWAP1 SSTORE CHAINID PUSH1 0x1 DUP2 EQ PUSH2 0x55 JUMPI PUSH2 0x7080 PUSH1 0xB SSTORE PUSH2 0x4B0 PUSH1 0xC SSTORE JUMPDEST POP PUSH2 0x2145 DUP1 PUSH2 0x65 PUSH1 0x0 CODECOPY PUSH1 0x0 RETURN INVALID PUSH1 0x80 PUSH1 0x40 MSTORE CALLVALUE DUP1 ISZERO PUSH2 0x10 JUMPI PUSH1 0x0 DUP1 REVERT JUMPDEST POP PUSH1 0x4 CALLDATASIZE LT PUSH2 0x211 JUMPI PUSH1 0x0 CALLDATALOAD PUSH1 0xE0 SHR DUP1 PUSH4 0x8DA5CB5B GT PUSH2 0x125 JUMPI DUP1 PUSH4 0xCFED246B GT PUSH2 0xAD JUMPI DUP1 PUSH4 0xE14F870D GT PUSH2 0x7C JUMPI DUP1 PUSH4 0xE14F870D EQ PUSH2 0x419 JUMPI DUP1 PUSH4 0xE84E5A9D EQ PUSH2 0x421 JUMPI DUP1 PUSH4 0xE9F84AD4 EQ PUSH2 0x434 JUMPI DUP1 PUSH4 0xF435B0CF EQ PUSH2 0x447 JUMPI DUP1 PUSH4 0xF59AD48A EQ PUSH2 0x45A JUMPI PUSH2 0x211 JUMP JUMPDEST DUP1 PUSH4 0xCFED246B EQ PUSH2 0x3E3 JUMPI DUP1 PUSH4 0xD1B812CD EQ PUSH2 0x3F6 JUMPI DUP1 PUSH4 0xD83062B4 EQ PUSH2 0x3FE JUMPI DUP1 PUSH4 0xDC6AB527 EQ PUSH2 0x406 JUMPI PUSH2 0x211 JUMP JUMPDEST DUP1 PUSH4 0xA87122F5 GT PUSH2 0xF4 JUMPI DUP1 PUSH4 0xA87122F5 EQ PUSH2 0x39A JUMPI DUP1 PUSH4 0xAD5C4648 EQ PUSH2 0x3AD JUMPI DUP1 PUSH4 0xAE42BE79 EQ PUSH2 0x3B5 JUMPI DUP1 PUSH4 0xC6756F69 EQ PUSH2 0x3C8 JUMPI DUP1 PUSH4 0xCA4B208B EQ PUSH2 0x3DB JUMPI PUSH2 0x211 JUMP JUMPDEST DUP1 PUSH4 0x8DA5CB5B EQ PUSH2 0x364 JUMPI DUP1 PUSH4 0x9D89EC4B EQ PUSH2 0x36C JUMPI DUP1 PUSH4 0x9EE7F702 EQ PUSH2 0x37F JUMPI DUP1 PUSH4 0xA39DC9BE EQ PUSH2 0x392 JUMPI PUSH2 0x211 JUMP JUMPDEST DUP1 PUSH4 0x39701C0A GT PUSH2 0x1A8 JUMPI DUP1 PUSH4 0x60E9F1DD GT PUSH2 0x177 JUMPI DUP1 PUSH4 0x60E9F1DD EQ PUSH2 0x305 JUMPI DUP1 PUSH4 0x69843940 EQ PUSH2 0x318 JUMPI DUP1 PUSH4 0x6B26F13B EQ PUSH2 0x32B JUMPI DUP1 PUSH4 0x6CFD19EA EQ PUSH2 0x33E JUMPI DUP1 PUSH4 0x75A356CC EQ PUSH2 0x351 JUMPI PUSH2 0x211 JUMP JUMPDEST DUP1 PUSH4 0x39701C0A EQ PUSH2 0x2CF JUMPI DUP1 PUSH4 0x4219DC40 EQ PUSH2 0x2E2 JUMPI DUP1 PUSH4 0x4BDE38C8 EQ PUSH2 0x2EA JUMPI DUP1 PUSH4 0x4F07F403 EQ PUSH2 0x2F2 JUMPI PUSH2 0x211 JUMP JUMPDEST DUP1 PUSH4 0x2B03DA3C GT PUSH2 0x1E4 JUMPI DUP1 PUSH4 0x2B03DA3C EQ PUSH2 0x27C JUMPI DUP1 PUSH4 0x2B3297F9 EQ PUSH2 0x29F JUMPI DUP1 PUSH4 0x31119B4D EQ PUSH2 0x2A7 JUMPI DUP1 PUSH4 0x35876476 EQ PUSH2 0x2BC JUMPI PUSH2 0x211 JUMP JUMPDEST DUP1 PUSH4 0xC340A24 EQ PUSH2 0x216 JUMPI DUP1 PUSH4 0x13FEEFC2 EQ PUSH2 0x234 JUMPI DUP1 PUSH4 0x1B5E40EC EQ PUSH2 0x247 JUMPI DUP1 PUSH4 0x27CFE856 EQ PUSH2 0x267 JUMPI JUMPDEST PUSH1 0x0 DUP1 REVERT JUMPDEST PUSH2 0x21E PUSH2 0x462 JUMP JUMPDEST PUSH1 0x40 MLOAD PUSH2 0x22B SWAP2 SWAP1 PUSH2 0x1D82 JUMP JUMPDEST PUSH1 0x40 MLOAD DUP1 SWAP2 SUB SWAP1 RETURN JUMPDEST PUSH2 0x21E PUSH2 0x242 CALLDATASIZE PUSH1 0x4 PUSH2 0x1C85 JUMP JUMPDEST PUSH2 0x471 JUMP JUMPDEST PUSH2 0x25A PUSH2 0x255 CALLDATASIZE PUSH1 0x4 PUSH2 0x1C9D JUMP JUMPDEST PUSH2 0x48C JUMP JUMPDEST PUSH1 0x40 MLOAD PUSH2 0x22B SWAP2 SWAP1 PUSH2 0x1E3E JUMP JUMPDEST PUSH2 0x26F PUSH2 0x4AC JUMP JUMPDEST PUSH1 0x40 MLOAD PUSH2 0x22B SWAP2 SWAP1 PUSH2 0x20D3 JUMP JUMPDEST PUSH2 0x28F PUSH2 0x28A CALLDATASIZE PUSH1 0x4 PUSH2 0x1C85 JUMP JUMPDEST PUSH2 0x4B2 JUMP JUMPDEST PUSH1 0x40 MLOAD PUSH2 0x22B SWAP5 SWAP4 SWAP3 SWAP2 SWAP1 PUSH2 0x20DC JUMP JUMPDEST PUSH2 0x21E PUSH2 0x50F JUMP JUMPDEST PUSH2 0x2BA PUSH2 0x2B5 CALLDATASIZE PUSH1 0x4 PUSH2 0x19A3 JUMP JUMPDEST PUSH2 0x51E JUMP JUMPDEST STOP JUMPDEST PUSH2 0x2BA PUSH2 0x2CA CALLDATASIZE PUSH1 0x4 PUSH2 0x19BE JUMP JUMPDEST PUSH2 0x5C6 JUMP JUMPDEST PUSH2 0x2BA PUSH2 0x2DD CALLDATASIZE PUSH1 0x4 PUSH2 0x1C59 JUMP JUMPDEST PUSH2 0x683 JUMP JUMPDEST PUSH2 0x21E PUSH2 0x763 JUMP JUMPDEST PUSH2 0x21E PUSH2 0x772 JUMP JUMPDEST PUSH2 0x26F PUSH2 0x300 CALLDATASIZE PUSH1 0x4 PUSH2 0x1B29 JUMP JUMPDEST PUSH2 0x781 JUMP JUMPDEST PUSH2 0x2BA PUSH2 0x313 CALLDATASIZE PUSH1 0x4 PUSH2 0x1B53 JUMP JUMPDEST PUSH2 0x7F2 JUMP JUMPDEST PUSH2 0x26F PUSH2 0x326 CALLDATASIZE PUSH1 0x4 PUSH2 0x1C85 JUMP JUMPDEST PUSH2 0x898 JUMP JUMPDEST PUSH2 0x28F PUSH2 0x339 CALLDATASIZE PUSH1 0x4 PUSH2 0x1B29 JUMP JUMPDEST PUSH2 0x8DC JUMP JUMPDEST PUSH2 0x2BA PUSH2 0x34C CALLDATASIZE PUSH1 0x4 PUSH2 0x1CCC JUMP JUMPDEST PUSH2 0x913 JUMP JUMPDEST PUSH2 0x26F PUSH2 0x35F CALLDATASIZE PUSH1 0x4 PUSH2 0x1A53 JUMP JUMPDEST PUSH2 0x9D7 JUMP JUMPDEST PUSH2 0x21E PUSH2 0xBB7 JUMP JUMPDEST PUSH2 0x2BA PUSH2 0x37A CALLDATASIZE PUSH1 0x4 PUSH2 0x1A93 JUMP JUMPDEST PUSH2 0xBC6 JUMP JUMPDEST PUSH2 0x26F PUSH2 0x38D CALLDATASIZE PUSH1 0x4 PUSH2 0x1BD2 JUMP JUMPDEST PUSH2 0xE91 JUMP JUMPDEST PUSH2 0x26F PUSH2 0x1010 JUMP JUMPDEST PUSH2 0x2BA PUSH2 0x3A8 CALLDATASIZE PUSH1 0x4 PUSH2 0x1B87 JUMP JUMPDEST PUSH2 0x1016 JUMP JUMPDEST PUSH2 0x21E PUSH2 0x1095 JUMP JUMPDEST PUSH2 0x25A PUSH2 0x3C3 CALLDATASIZE PUSH1 0x4 PUSH2 0x1C85 JUMP JUMPDEST PUSH2 0x10A4 JUMP JUMPDEST PUSH2 0x2BA PUSH2 0x3D6 CALLDATASIZE PUSH1 0x4 PUSH2 0x1CED JUMP JUMPDEST PUSH2 0x10B9 JUMP JUMPDEST PUSH2 0x21E PUSH2 0x112F JUMP JUMPDEST PUSH2 0x26F PUSH2 0x3F1 CALLDATASIZE PUSH1 0x4 PUSH2 0x19A3 JUMP JUMPDEST PUSH2 0x113E JUMP JUMPDEST PUSH2 0x21E PUSH2 0x1150 JUMP JUMPDEST PUSH2 0x21E PUSH2 0x115F JUMP JUMPDEST PUSH2 0x28F PUSH2 0x414 CALLDATASIZE PUSH1 0x4 PUSH2 0x1C85 JUMP JUMPDEST PUSH2 0x116E JUMP JUMPDEST PUSH2 0x21E PUSH2 0x1195 JUMP JUMPDEST PUSH2 0x2BA PUSH2 0x42F CALLDATASIZE PUSH1 0x4 PUSH2 0x1BF0 JUMP JUMPDEST PUSH2 0x11A4 JUMP JUMPDEST PUSH2 0x28F PUSH2 0x442 CALLDATASIZE PUSH1 0x4 PUSH2 0x1B29 JUMP JUMPDEST PUSH2 0x14BE JUMP JUMPDEST PUSH2 0x28F PUSH2 0x455 CALLDATASIZE PUSH1 0x4 PUSH2 0x1B29 JUMP JUMPDEST PUSH2 0x1530 JUMP JUMPDEST PUSH2 0x26F PUSH2 0x1562 JUMP JUMPDEST PUSH1 0x5 SLOAD PUSH1 0x1 PUSH1 0x1 PUSH1 0xA0 SHL SUB AND DUP2 JUMP JUMPDEST PUSH1 0xF PUSH1 0x20 MSTORE PUSH1 0x0 SWAP1 DUP2 MSTORE PUSH1 0x40 SWAP1 KECCAK256 SLOAD PUSH1 0x1 PUSH1 0x1 PUSH1 0xA0 SHL SUB AND DUP2 JUMP JUMPDEST PUSH1 0x12 PUSH1 0x20 SWAP1 DUP2 MSTORE PUSH1 0x0 SWAP3 DUP4 MSTORE PUSH1 0x40 DUP1 DUP5 KECCAK256 SWAP1 SWAP2 MSTORE SWAP1 DUP3 MSTORE SWAP1 KECCAK256 SLOAD PUSH1 0xFF AND DUP2 JUMP JUMPDEST PUSH1 0xB SLOAD DUP2 JUMP JUMPDEST PUSH1 0x0 DUP1 PUSH1 0x0 DUP1 PUSH2 0x4C0 PUSH2 0x1888 JUMP JUMPDEST POP POP POP PUSH1 0x0 SWAP3 DUP4 MSTORE POP POP PUSH1 0xE PUSH1 0x20 SWAP1 DUP2 MSTORE PUSH1 0x40 SWAP2 DUP3 SWAP1 KECCAK256 DUP3 MLOAD PUSH1 0x80 DUP2 ADD DUP5 MSTORE DUP2 SLOAD DUP1 DUP3 MSTORE PUSH1 0x1 DUP4 ADD SLOAD SWAP4 DUP3 ADD DUP5 SWAP1 MSTORE PUSH1 0x2 DUP4 ADD SLOAD SWAP5 DUP3 ADD DUP6 SWAP1 MSTORE PUSH1 0x3 SWAP1 SWAP3 ADD SLOAD PUSH1 0x60 SWAP1 SWAP2 ADD DUP2 SWAP1 MSTORE SWAP1 SWAP4 SWAP2 SWAP3 SWAP2 JUMP JUMPDEST PUSH1 0x6 SLOAD PUSH1 0x1 PUSH1 0x1 PUSH1 0xA0 SHL SUB AND DUP2 JUMP JUMPDEST PUSH1 0x4 SLOAD PUSH1 0x0 SLOAD PUSH1 0x1 PUSH1 0x1 PUSH1 0xA0 SHL SUB SWAP2 DUP3 AND SWAP2 AND CALLER EQ DUP1 PUSH2 0x548 JUMPI POP PUSH1 0x4 SLOAD PUSH1 0x1 PUSH1 0x1 PUSH1 0xA0 SHL SUB AND CALLER EQ JUMPDEST PUSH2 0x56D JUMPI PUSH1 0x40 MLOAD PUSH3 0x461BCD PUSH1 0xE5 SHL DUP2 MSTORE PUSH1 0x4 ADD PUSH2 0x564 SWAP1 PUSH2 0x1EE1 JUMP JUMPDEST PUSH1 0x40 MLOAD DUP1 SWAP2 SUB SWAP1 REVERT JUMPDEST PUSH1 0x4 DUP1 SLOAD PUSH1 0x1 PUSH1 0x1 PUSH1 0xA0 SHL SUB NOT AND PUSH1 0x1 PUSH1 0x1 PUSH1 0xA0 SHL SUB DUP5 AND OR SWAP1 SSTORE PUSH1 0x40 MLOAD PUSH32 0x982E83CE54C5910AF91E9E631DBFD41493870CB9ABFFBAFDD53E17FB48894996 SWAP1 PUSH2 0x5BA SWAP1 DUP4 SWAP1 DUP6 SWAP1 PUSH2 0x1D96 JUMP JUMPDEST PUSH1 0x40 MLOAD DUP1 SWAP2 SUB SWAP1 LOG1 POP POP JUMP JUMPDEST PUSH1 0x0 SLOAD PUSH1 0x1 PUSH1 0x1 PUSH1 0xA0 SHL SUB AND CALLER EQ DUP1 PUSH2 0x5E9 JUMPI POP PUSH1 0x4 SLOAD PUSH1 0x1 PUSH1 0x1 PUSH1 0xA0 SHL SUB AND CALLER EQ JUMPDEST PUSH2 0x605 JUMPI PUSH1 0x40 MLOAD PUSH3 0x461BCD PUSH1 0xE5 SHL DUP2 MSTORE PUSH1 0x4 ADD PUSH2 0x564 SWAP1 PUSH2 0x1EE1 JUMP JUMPDEST PUSH1 0x3 DUP1 SLOAD PUSH1 0x1 PUSH1 0x1 PUSH1 0xA0 SHL SUB NOT SWAP1 DUP2 AND PUSH1 0x1 PUSH1 0x1 PUSH1 0xA0 SHL SUB SWAP10 DUP11 AND OR SWAP1 SWAP2 SSTORE PUSH1 0x1 DUP1 SLOAD DUP3 AND SWAP8 DUP10 AND SWAP8 SWAP1 SWAP8 OR SWAP1 SWAP7 SSTORE PUSH1 0x2 DUP1 SLOAD DUP8 AND SWAP6 DUP9 AND SWAP6 SWAP1 SWAP6 OR SWAP1 SWAP5 SSTORE PUSH1 0x5 DUP1 SLOAD DUP7 AND SWAP4 DUP8 AND SWAP4 SWAP1 SWAP4 OR SWAP1 SWAP3 SSTORE PUSH1 0x8 DUP1 SLOAD DUP6 AND SWAP2 DUP7 AND SWAP2 SWAP1 SWAP2 OR SWAP1 SSTORE PUSH1 0x7 DUP1 SLOAD DUP5 AND SWAP2 DUP6 AND SWAP2 SWAP1 SWAP2 OR SWAP1 SSTORE PUSH1 0x9 DUP1 SLOAD SWAP1 SWAP3 AND SWAP3 AND SWAP2 SWAP1 SWAP2 OR SWAP1 SSTORE JUMP JUMPDEST PUSH1 0x0 SLOAD PUSH1 0x1 PUSH1 0x1 PUSH1 0xA0 SHL SUB AND CALLER EQ DUP1 PUSH2 0x6A6 JUMPI POP PUSH1 0x4 SLOAD PUSH1 0x1 PUSH1 0x1 PUSH1 0xA0 SHL SUB AND CALLER EQ JUMPDEST PUSH2 0x6C2 JUMPI PUSH1 0x40 MLOAD PUSH3 0x461BCD PUSH1 0xE5 SHL DUP2 MSTORE PUSH1 0x4 ADD PUSH2 0x564 SWAP1 PUSH2 0x1F48 JUMP JUMPDEST DUP3 DUP2 EQ PUSH2 0x6E1 JUMPI PUSH1 0x40 MLOAD PUSH3 0x461BCD PUSH1 0xE5 SHL DUP2 MSTORE PUSH1 0x4 ADD PUSH2 0x564 SWAP1 PUSH2 0x1FAD JUMP JUMPDEST PUSH1 0x0 JUMPDEST DUP4 DUP2 LT ISZERO PUSH2 0x75C JUMPI DUP3 DUP3 DUP3 DUP2 DUP2 LT PUSH2 0x6F8 JUMPI INVALID JUMPDEST SWAP1 POP PUSH1 0x20 MUL ADD PUSH1 0x20 DUP2 ADD SWAP1 PUSH2 0x70D SWAP2 SWAP1 PUSH2 0x19A3 JUMP JUMPDEST PUSH1 0xF PUSH1 0x0 DUP8 DUP8 DUP6 DUP2 DUP2 LT PUSH2 0x71D JUMPI INVALID JUMPDEST PUSH1 0x20 SWAP1 DUP2 MUL SWAP3 SWAP1 SWAP3 ADD CALLDATALOAD DUP4 MSTORE POP DUP2 ADD SWAP2 SWAP1 SWAP2 MSTORE PUSH1 0x40 ADD PUSH1 0x0 KECCAK256 DUP1 SLOAD PUSH1 0x1 PUSH1 0x1 PUSH1 0xA0 SHL SUB NOT AND PUSH1 0x1 PUSH1 0x1 PUSH1 0xA0 SHL SUB SWAP3 SWAP1 SWAP3 AND SWAP2 SWAP1 SWAP2 OR SWAP1 SSTORE PUSH1 0x1 ADD PUSH2 0x6E4 JUMP JUMPDEST POP POP POP POP POP JUMP JUMPDEST PUSH1 0x1 SLOAD PUSH1 0x1 PUSH1 0x1 PUSH1 0xA0 SHL SUB AND DUP2 JUMP JUMPDEST PUSH1 0x3 SLOAD PUSH1 0x1 PUSH1 0x1 PUSH1 0xA0 SHL SUB AND DUP2 JUMP JUMPDEST PUSH1 0x0 DUP2 DUP2 MSTORE PUSH1 0x12 PUSH1 0x20 SWAP1 DUP2 MSTORE PUSH1 0x40 DUP1 DUP4 KECCAK256 PUSH1 0x1 PUSH1 0x1 PUSH1 0xA0 SHL SUB DUP7 AND DUP5 MSTORE SWAP1 SWAP2 MSTORE DUP2 KECCAK256 SLOAD PUSH1 0xFF AND PUSH2 0x7C3 JUMPI PUSH1 0x40 MLOAD PUSH3 0x461BCD PUSH1 0xE5 SHL DUP2 MSTORE PUSH1 0x4 ADD PUSH2 0x564 SWAP1 PUSH2 0x1EAA JUMP JUMPDEST POP PUSH1 0x1 PUSH1 0x1 PUSH1 0xA0 SHL SUB DUP3 AND PUSH1 0x0 SWAP1 DUP2 MSTORE PUSH1 0xD PUSH1 0x20 SWAP1 DUP2 MSTORE PUSH1 0x40 DUP1 DUP4 KECCAK256 DUP5 DUP5 MSTORE SWAP1 SWAP2 MSTORE SWAP1 KECCAK256 PUSH1 0x3 ADD SLOAD JUMPDEST SWAP3 SWAP2 POP POP JUMP JUMPDEST PUSH1 0x0 SLOAD PUSH1 0x1 PUSH1 0x1 PUSH1 0xA0 SHL SUB AND CALLER EQ DUP1 PUSH2 0x815 JUMPI POP PUSH1 0x5 SLOAD PUSH1 0x1 PUSH1 0x1 PUSH1 0xA0 SHL SUB AND CALLER EQ JUMPDEST DUP1 PUSH2 0x82A JUMPI POP PUSH1 0x3 SLOAD PUSH1 0x1 PUSH1 0x1 PUSH1 0xA0 SHL SUB AND CALLER EQ JUMPDEST DUP1 PUSH2 0x83F JUMPI POP PUSH1 0x4 SLOAD PUSH1 0x1 PUSH1 0x1 PUSH1 0xA0 SHL SUB AND CALLER EQ JUMPDEST PUSH2 0x85B JUMPI PUSH1 0x40 MLOAD PUSH3 0x461BCD PUSH1 0xE5 SHL DUP2 MSTORE PUSH1 0x4 ADD PUSH2 0x564 SWAP1 PUSH2 0x2051 JUMP JUMPDEST PUSH1 0x0 DUP3 DUP2 MSTORE PUSH1 0x12 PUSH1 0x20 SWAP1 DUP2 MSTORE PUSH1 0x40 DUP1 DUP4 KECCAK256 PUSH1 0x1 PUSH1 0x1 PUSH1 0xA0 SHL SUB DUP8 AND DUP5 MSTORE SWAP1 SWAP2 MSTORE SWAP1 KECCAK256 DUP1 SLOAD PUSH1 0xFF NOT AND PUSH1 0x1 OR SWAP1 SSTORE PUSH2 0x893 DUP4 DUP4 DUP4 PUSH2 0x1568 JUMP JUMPDEST POP POP POP JUMP JUMPDEST PUSH1 0x0 DUP2 DUP2 MSTORE PUSH1 0x11 PUSH1 0x20 MSTORE PUSH1 0x40 DUP2 KECCAK256 SLOAD PUSH1 0xFF AND PUSH2 0x8C6 JUMPI PUSH1 0x40 MLOAD PUSH3 0x461BCD PUSH1 0xE5 SHL DUP2 MSTORE PUSH1 0x4 ADD PUSH2 0x564 SWAP1 PUSH2 0x2025 JUMP JUMPDEST POP PUSH1 0x0 SWAP1 DUP2 MSTORE PUSH1 0xE PUSH1 0x20 MSTORE PUSH1 0x40 SWAP1 KECCAK256 PUSH1 0x3 ADD SLOAD SWAP1 JUMP JUMPDEST PUSH1 0x13 PUSH1 0x20 MSTORE DUP2 PUSH1 0x0 MSTORE PUSH1 0x40 PUSH1 0x0 KECCAK256 DUP2 PUSH1 0x3 DUP2 LT PUSH2 0x8F5 JUMPI INVALID JUMPDEST PUSH1 0x4 MUL ADD DUP1 SLOAD PUSH1 0x1 DUP3 ADD SLOAD PUSH1 0x2 DUP4 ADD SLOAD PUSH1 0x3 SWAP1 SWAP4 ADD SLOAD SWAP2 SWAP5 POP SWAP3 POP DUP5 JUMP JUMPDEST PUSH1 0x0 SLOAD PUSH1 0x1 PUSH1 0x1 PUSH1 0xA0 SHL SUB AND CALLER EQ DUP1 PUSH2 0x936 JUMPI POP PUSH1 0x5 SLOAD PUSH1 0x1 PUSH1 0x1 PUSH1 0xA0 SHL SUB AND CALLER EQ JUMPDEST DUP1 PUSH2 0x94B JUMPI POP PUSH1 0x3 SLOAD PUSH1 0x1 PUSH1 0x1 PUSH1 0xA0 SHL SUB AND CALLER EQ JUMPDEST DUP1 PUSH2 0x960 JUMPI POP PUSH1 0x4 SLOAD PUSH1 0x1 PUSH1 0x1 PUSH1 0xA0 SHL SUB AND CALLER EQ JUMPDEST PUSH2 0x97C JUMPI PUSH1 0x40 MLOAD PUSH3 0x461BCD PUSH1 0xE5 SHL DUP2 MSTORE PUSH1 0x4 ADD PUSH2 0x564 SWAP1 PUSH2 0x1F48 JUMP JUMPDEST PUSH1 0x0 DUP3 DUP2 MSTORE PUSH1 0xE PUSH1 0x20 SWAP1 DUP2 MSTORE PUSH1 0x40 DUP1 DUP4 KECCAK256 PUSH1 0x3 ADD DUP5 SWAP1 SSTORE PUSH1 0x11 SWAP1 SWAP2 MSTORE SWAP1 DUP2 SWAP1 KECCAK256 DUP1 SLOAD PUSH1 0xFF NOT AND PUSH1 0x1 OR SWAP1 SSTORE MLOAD PUSH32 0xA7F64E425251323AFFBEE8E5836AFFCDC8ADFA374A7E9EB294EFB263F82AA606 SWAP1 PUSH2 0x5BA SWAP1 DUP5 SWAP1 DUP5 SWAP1 PUSH2 0x1E49 JUMP JUMPDEST PUSH1 0x1 PUSH1 0x1 PUSH1 0xA0 SHL SUB DUP1 DUP5 AND PUSH1 0x0 SWAP1 DUP2 MSTORE PUSH1 0x10 PUSH1 0x20 MSTORE PUSH1 0x40 DUP1 DUP3 KECCAK256 SLOAD SWAP3 DUP6 AND DUP3 MSTORE DUP2 KECCAK256 SLOAD SWAP1 SWAP2 SWAP1 DUP2 ISZERO DUP1 ISZERO SWAP1 PUSH2 0xA0C JUMPI POP PUSH1 0x0 DUP2 GT JUMPDEST PUSH2 0xA28 JUMPI PUSH1 0x40 MLOAD PUSH3 0x461BCD PUSH1 0xE5 SHL DUP2 MSTORE PUSH1 0x4 ADD PUSH2 0x564 SWAP1 PUSH2 0x20A8 JUMP JUMPDEST PUSH1 0x0 DUP7 PUSH1 0x1 PUSH1 0x1 PUSH1 0xA0 SHL SUB AND PUSH4 0x313CE567 PUSH1 0x40 MLOAD DUP2 PUSH4 0xFFFFFFFF AND PUSH1 0xE0 SHL DUP2 MSTORE PUSH1 0x4 ADD PUSH1 0x20 PUSH1 0x40 MLOAD DUP1 DUP4 SUB DUP2 DUP7 DUP1 EXTCODESIZE ISZERO DUP1 ISZERO PUSH2 0xA63 JUMPI PUSH1 0x0 DUP1 REVERT JUMPDEST POP GAS STATICCALL ISZERO DUP1 ISZERO PUSH2 0xA77 JUMPI RETURNDATASIZE PUSH1 0x0 DUP1 RETURNDATACOPY RETURNDATASIZE PUSH1 0x0 REVERT JUMPDEST POP POP POP POP PUSH1 0x40 MLOAD RETURNDATASIZE PUSH1 0x1F NOT PUSH1 0x1F DUP3 ADD AND DUP3 ADD DUP1 PUSH1 0x40 MSTORE POP DUP2 ADD SWAP1 PUSH2 0xA9B SWAP2 SWAP1 PUSH2 0x1D27 JUMP JUMPDEST SWAP1 POP PUSH1 0x0 DUP7 PUSH1 0x1 PUSH1 0x1 PUSH1 0xA0 SHL SUB AND PUSH4 0x313CE567 PUSH1 0x40 MLOAD DUP2 PUSH4 0xFFFFFFFF AND PUSH1 0xE0 SHL DUP2 MSTORE PUSH1 0x4 ADD PUSH1 0x20 PUSH1 0x40 MLOAD DUP1 DUP4 SUB DUP2 DUP7 DUP1 EXTCODESIZE ISZERO DUP1 ISZERO PUSH2 0xAD8 JUMPI PUSH1 0x0 DUP1 REVERT JUMPDEST POP GAS STATICCALL ISZERO DUP1 ISZERO PUSH2 0xAEC JUMPI RETURNDATASIZE PUSH1 0x0 DUP1 RETURNDATACOPY RETURNDATASIZE PUSH1 0x0 REVERT JUMPDEST POP POP POP POP PUSH1 0x40 MLOAD RETURNDATASIZE PUSH1 0x1F NOT PUSH1 0x1F DUP3 ADD AND DUP3 ADD DUP1 PUSH1 0x40 MSTORE POP DUP2 ADD SWAP1 PUSH2 0xB10 SWAP2 SWAP1 PUSH2 0x1D27 JUMP JUMPDEST SWAP1 POP PUSH2 0xB32 DUP4 PUSH2 0xB26 DUP9 DUP8 PUSH4 0xFFFFFFFF PUSH2 0x15D2 AND JUMP JUMPDEST SWAP1 PUSH4 0xFFFFFFFF PUSH2 0x160C AND JUMP JUMPDEST SWAP5 POP DUP1 PUSH1 0xFF AND DUP3 PUSH1 0xFF AND GT ISZERO PUSH2 0xB72 JUMPI PUSH2 0xB6B PUSH2 0xB5B PUSH1 0xFF DUP5 DUP2 AND SWAP1 DUP5 AND PUSH4 0xFFFFFFFF PUSH2 0x164E AND JUMP JUMPDEST DUP7 SWAP1 PUSH1 0xA EXP PUSH4 0xFFFFFFFF PUSH2 0x160C AND JUMP JUMPDEST SWAP5 POP PUSH2 0xBAC JUMP JUMPDEST DUP2 PUSH1 0xFF AND DUP2 PUSH1 0xFF AND GT ISZERO PUSH2 0xBAC JUMPI PUSH2 0xBA9 PUSH2 0xB99 PUSH1 0xFF DUP4 DUP2 AND SWAP1 DUP6 AND PUSH4 0xFFFFFFFF PUSH2 0x164E AND JUMP JUMPDEST DUP7 SWAP1 PUSH1 0xA EXP PUSH4 0xFFFFFFFF PUSH2 0x15D2 AND JUMP JUMPDEST SWAP5 POP JUMPDEST POP POP POP POP SWAP4 SWAP3 POP POP POP JUMP JUMPDEST PUSH1 0x0 SLOAD PUSH1 0x1 PUSH1 0x1 PUSH1 0xA0 SHL SUB AND DUP2 JUMP JUMPDEST PUSH1 0x0 SLOAD PUSH1 0x1 PUSH1 0x1 PUSH1 0xA0 SHL SUB AND CALLER EQ DUP1 PUSH2 0xBE9 JUMPI POP PUSH1 0x5 SLOAD PUSH1 0x1 PUSH1 0x1 PUSH1 0xA0 SHL SUB AND CALLER EQ JUMPDEST DUP1 PUSH2 0xBFE JUMPI POP PUSH1 0x4 SLOAD PUSH1 0x1 PUSH1 0x1 PUSH1 0xA0 SHL SUB AND CALLER EQ JUMPDEST PUSH2 0xC1A JUMPI PUSH1 0x40 MLOAD PUSH3 0x461BCD PUSH1 0xE5 SHL DUP2 MSTORE PUSH1 0x4 ADD PUSH2 0x564 SWAP1 PUSH2 0x2051 JUMP JUMPDEST DUP3 MLOAD PUSH1 0x4 EQ ISZERO PUSH2 0xCD4 JUMPI PUSH1 0x40 MLOAD DUP1 PUSH1 0x80 ADD PUSH1 0x40 MSTORE DUP1 DUP5 PUSH1 0x0 DUP2 MLOAD DUP2 LT PUSH2 0xC3C JUMPI INVALID JUMPDEST PUSH1 0x20 MUL PUSH1 0x20 ADD ADD MLOAD DUP2 MSTORE PUSH1 0x20 ADD DUP5 PUSH1 0x1 DUP2 MLOAD DUP2 LT PUSH2 0xC56 JUMPI INVALID JUMPDEST PUSH1 0x20 MUL PUSH1 0x20 ADD ADD MLOAD DUP2 MSTORE PUSH1 0x20 ADD DUP5 PUSH1 0x2 DUP2 MLOAD DUP2 LT PUSH2 0xC70 JUMPI INVALID JUMPDEST PUSH1 0x20 MUL PUSH1 0x20 ADD ADD MLOAD DUP2 MSTORE PUSH1 0x20 ADD DUP5 PUSH1 0x3 DUP2 MLOAD DUP2 LT PUSH2 0xC8A JUMPI INVALID JUMPDEST PUSH1 0x20 SWAP1 DUP2 MUL SWAP2 SWAP1 SWAP2 ADD DUP2 ADD MLOAD SWAP1 SWAP2 MSTORE PUSH1 0x1 PUSH1 0x1 PUSH1 0xA0 SHL SUB DUP7 AND PUSH1 0x0 SWAP1 DUP2 MSTORE PUSH1 0x13 DUP3 MSTORE PUSH1 0x40 SWAP1 DUP2 SWAP1 KECCAK256 DUP4 MLOAD DUP2 SSTORE SWAP2 DUP4 ADD MLOAD PUSH1 0x1 DUP4 ADD SSTORE DUP3 ADD MLOAD PUSH1 0x2 DUP3 ADD SSTORE PUSH1 0x60 SWAP1 SWAP2 ADD MLOAD PUSH1 0x3 SWAP1 SWAP2 ADD SSTORE JUMPDEST DUP2 MLOAD PUSH1 0x4 EQ ISZERO PUSH2 0xD91 JUMPI PUSH1 0x40 MLOAD DUP1 PUSH1 0x80 ADD PUSH1 0x40 MSTORE DUP1 DUP4 PUSH1 0x0 DUP2 MLOAD DUP2 LT PUSH2 0xCF6 JUMPI INVALID JUMPDEST PUSH1 0x20 MUL PUSH1 0x20 ADD ADD MLOAD DUP2 MSTORE PUSH1 0x20 ADD DUP4 PUSH1 0x1 DUP2 MLOAD DUP2 LT PUSH2 0xD10 JUMPI INVALID JUMPDEST PUSH1 0x20 MUL PUSH1 0x20 ADD ADD MLOAD DUP2 MSTORE PUSH1 0x20 ADD DUP4 PUSH1 0x2 DUP2 MLOAD DUP2 LT PUSH2 0xD2A JUMPI INVALID JUMPDEST PUSH1 0x20 MUL PUSH1 0x20 ADD ADD MLOAD DUP2 MSTORE PUSH1 0x20 ADD DUP4 PUSH1 0x3 DUP2 MLOAD DUP2 LT PUSH2 0xD44 JUMPI INVALID JUMPDEST PUSH1 0x20 SWAP1 DUP2 MUL SWAP2 SWAP1 SWAP2 ADD DUP2 ADD MLOAD SWAP1 SWAP2 MSTORE PUSH1 0x1 PUSH1 0x1 PUSH1 0xA0 SHL SUB DUP7 AND PUSH1 0x0 SWAP1 DUP2 MSTORE PUSH1 0x13 DUP3 MSTORE PUSH1 0x40 SWAP1 DUP2 SWAP1 KECCAK256 DUP4 MLOAD PUSH1 0x4 DUP3 ADD SSTORE SWAP2 DUP4 ADD MLOAD PUSH1 0x5 DUP4 ADD SSTORE DUP3 ADD MLOAD PUSH1 0x6 DUP3 ADD SSTORE PUSH1 0x60 SWAP1 SWAP2 ADD MLOAD PUSH1 0x7 SWAP1 SWAP2 ADD SSTORE JUMPDEST DUP1 MLOAD PUSH1 0x4 EQ ISZERO PUSH2 0xE4E JUMPI PUSH1 0x40 MLOAD DUP1 PUSH1 0x80 ADD PUSH1 0x40 MSTORE DUP1 DUP3 PUSH1 0x0 DUP2 MLOAD DUP2 LT PUSH2 0xDB3 JUMPI INVALID JUMPDEST PUSH1 0x20 MUL PUSH1 0x20 ADD ADD MLOAD DUP2 MSTORE PUSH1 0x20 ADD DUP3 PUSH1 0x1 DUP2 MLOAD DUP2 LT PUSH2 0xDCD JUMPI INVALID JUMPDEST PUSH1 0x20 MUL PUSH1 0x20 ADD ADD MLOAD DUP2 MSTORE PUSH1 0x20 ADD DUP3 PUSH1 0x2 DUP2 MLOAD DUP2 LT PUSH2 0xDE7 JUMPI INVALID JUMPDEST PUSH1 0x20 MUL PUSH1 0x20 ADD ADD MLOAD DUP2 MSTORE PUSH1 0x20 ADD DUP3 PUSH1 0x3 DUP2 MLOAD DUP2 LT PUSH2 0xE01 JUMPI INVALID JUMPDEST PUSH1 0x20 SWAP1 DUP2 MUL SWAP2 SWAP1 SWAP2 ADD DUP2 ADD MLOAD SWAP1 SWAP2 MSTORE PUSH1 0x1 PUSH1 0x1 PUSH1 0xA0 SHL SUB DUP7 AND PUSH1 0x0 SWAP1 DUP2 MSTORE PUSH1 0x13 DUP3 MSTORE PUSH1 0x40 SWAP1 DUP2 SWAP1 KECCAK256 DUP4 MLOAD PUSH1 0x8 DUP3 ADD SSTORE SWAP2 DUP4 ADD MLOAD PUSH1 0x9 DUP4 ADD SSTORE DUP3 ADD MLOAD PUSH1 0xA DUP3 ADD SSTORE PUSH1 0x60 SWAP1 SWAP2 ADD MLOAD PUSH1 0xB SWAP1 SWAP2 ADD SSTORE JUMPDEST PUSH32 0x9C3781D8027BBDE4138E3A4DAA4055CCC3AA440CF5C3211AF9F30661B0662987 DUP5 DUP5 DUP5 DUP5 PUSH1 0x40 MLOAD PUSH2 0xE83 SWAP5 SWAP4 SWAP3 SWAP2 SWAP1 PUSH2 0x1DB0 JUMP JUMPDEST PUSH1 0x40 MLOAD DUP1 SWAP2 SUB SWAP1 LOG1 POP POP POP POP JUMP JUMPDEST PUSH1 0x0 DUP1 JUMPDEST PUSH1 0x3 DUP2 LT ISZERO PUSH2 0x1007 JUMPI PUSH2 0xEA6 PUSH2 0x1888 JUMP JUMPDEST PUSH1 0x1 PUSH1 0x1 PUSH1 0xA0 SHL SUB DUP7 AND PUSH1 0x0 SWAP1 DUP2 MSTORE PUSH1 0x13 PUSH1 0x20 MSTORE PUSH1 0x40 SWAP1 KECCAK256 DUP3 PUSH1 0x3 DUP2 LT PUSH2 0xEC9 JUMPI INVALID JUMPDEST PUSH1 0x4 MUL ADD PUSH1 0x40 MLOAD DUP1 PUSH1 0x80 ADD PUSH1 0x40 MSTORE SWAP1 DUP2 PUSH1 0x0 DUP3 ADD SLOAD DUP2 MSTORE PUSH1 0x20 ADD PUSH1 0x1 DUP3 ADD SLOAD DUP2 MSTORE PUSH1 0x20 ADD PUSH1 0x2 DUP3 ADD SLOAD DUP2 MSTORE PUSH1 0x20 ADD PUSH1 0x3 DUP3 ADD SLOAD DUP2 MSTORE POP POP SWAP1 POP DUP1 PUSH1 0x20 ADD MLOAD DUP5 MUL DUP6 PUSH2 0x2710 MUL GT PUSH2 0xFFE JUMPI PUSH1 0x0 DUP6 ISZERO DUP1 PUSH2 0xF20 JUMPI POP DUP5 ISZERO JUMPDEST PUSH2 0xF5C JUMPI PUSH2 0xF57 DUP6 PUSH2 0xB26 PUSH8 0xDE0B6B3A7640000 PUSH2 0xF4B DUP11 DUP8 PUSH1 0x40 ADD MLOAD PUSH2 0x15D2 SWAP1 SWAP2 SWAP1 PUSH4 0xFFFFFFFF AND JUMP JUMPDEST SWAP1 PUSH4 0xFFFFFFFF PUSH2 0x15D2 AND JUMP JUMPDEST PUSH2 0xF5F JUMP JUMPDEST PUSH1 0x0 JUMPDEST SWAP1 POP DUP2 PUSH1 0x60 ADD MLOAD PUSH1 0x1 EQ PUSH2 0xFB3 JUMPI PUSH2 0xFAE PUSH1 0xB SLOAD PUSH2 0xB26 PUSH2 0x16D PUSH2 0xB26 PUSH2 0x2710 PUSH2 0xB26 PUSH2 0xFA1 PUSH8 0xDE0B6B3A7640000 DUP11 PUSH1 0x0 ADD MLOAD PUSH2 0x15D2 SWAP1 SWAP2 SWAP1 PUSH4 0xFFFFFFFF AND JUMP JUMPDEST DUP9 SWAP1 PUSH4 0xFFFFFFFF PUSH2 0x164E AND JUMP JUMPDEST PUSH2 0xFF4 JUMP JUMPDEST PUSH2 0xFF4 PUSH1 0xB SLOAD PUSH2 0xB26 PUSH2 0x16D PUSH2 0xB26 PUSH2 0x2710 PUSH2 0xB26 PUSH2 0xFE7 PUSH8 0xDE0B6B3A7640000 DUP11 PUSH1 0x0 ADD MLOAD PUSH2 0x15D2 SWAP1 SWAP2 SWAP1 PUSH4 0xFFFFFFFF AND JUMP JUMPDEST DUP9 SWAP1 PUSH4 0xFFFFFFFF PUSH2 0x1690 AND JUMP JUMPDEST SWAP4 POP POP POP POP PUSH2 0x1009 JUMP JUMPDEST POP PUSH1 0x1 ADD PUSH2 0xE95 JUMP JUMPDEST POP JUMPDEST SWAP4 SWAP3 POP POP POP JUMP JUMPDEST PUSH1 0xC SLOAD DUP2 JUMP JUMPDEST PUSH1 0x0 SLOAD PUSH1 0x1 PUSH1 0x1 PUSH1 0xA0 SHL SUB AND CALLER EQ DUP1 PUSH2 0x1039 JUMPI POP PUSH1 0x5 SLOAD PUSH1 0x1 PUSH1 0x1 PUSH1 0xA0 SHL SUB AND CALLER EQ JUMPDEST DUP1 PUSH2 0x104E JUMPI POP PUSH1 0x3 SLOAD PUSH1 0x1 PUSH1 0x1 PUSH1 0xA0 SHL SUB AND CALLER EQ JUMPDEST DUP1 PUSH2 0x1063 JUMPI POP PUSH1 0x4 SLOAD PUSH1 0x1 PUSH1 0x1 PUSH1 0xA0 SHL SUB AND CALLER EQ JUMPDEST PUSH2 0x107F JUMPI PUSH1 0x40 MLOAD PUSH3 0x461BCD PUSH1 0xE5 SHL DUP2 MSTORE PUSH1 0x4 ADD PUSH2 0x564 SWAP1 PUSH2 0x2051 JUMP JUMPDEST PUSH2 0x108D DUP7 DUP7 DUP7 DUP7 DUP7 DUP7 PUSH2 0x16B5 JUMP JUMPDEST POP POP POP POP POP POP JUMP JUMPDEST PUSH1 0x8 SLOAD PUSH1 0x1 PUSH1 0x1 PUSH1 0xA0 SHL SUB AND DUP2 JUMP JUMPDEST PUSH1 0x11 PUSH1 0x20 MSTORE PUSH1 0x0 SWAP1 DUP2 MSTORE PUSH1 0x40 SWAP1 KECCAK256 SLOAD PUSH1 0xFF AND DUP2 JUMP JUMPDEST PUSH1 0x0 SLOAD PUSH1 0x1 PUSH1 0x1 PUSH1 0xA0 SHL SUB AND CALLER EQ DUP1 PUSH2 0x10DC JUMPI POP PUSH1 0x5 SLOAD PUSH1 0x1 PUSH1 0x1 PUSH1 0xA0 SHL SUB AND CALLER EQ JUMPDEST DUP1 PUSH2 0x10F1 JUMPI POP PUSH1 0x3 SLOAD PUSH1 0x1 PUSH1 0x1 PUSH1 0xA0 SHL SUB AND CALLER EQ JUMPDEST DUP1 PUSH2 0x1106 JUMPI POP PUSH1 0x4 SLOAD PUSH1 0x1 PUSH1 0x1 PUSH1 0xA0 SHL SUB AND CALLER EQ JUMPDEST PUSH2 0x1122 JUMPI PUSH1 0x40 MLOAD PUSH3 0x461BCD PUSH1 0xE5 SHL DUP2 MSTORE PUSH1 0x4 ADD PUSH2 0x564 SWAP1 PUSH2 0x2051 JUMP JUMPDEST PUSH2 0x75C DUP6 DUP6 DUP6 DUP6 DUP6 PUSH2 0x1751 JUMP JUMPDEST PUSH1 0x4 SLOAD PUSH1 0x1 PUSH1 0x1 PUSH1 0xA0 SHL SUB AND DUP2 JUMP JUMPDEST PUSH1 0x10 PUSH1 0x20 MSTORE PUSH1 0x0 SWAP1 DUP2 MSTORE PUSH1 0x40 SWAP1 KECCAK256 SLOAD DUP2 JUMP JUMPDEST PUSH1 0x7 SLOAD PUSH1 0x1 PUSH1 0x1 PUSH1 0xA0 SHL SUB AND DUP2 JUMP JUMPDEST PUSH1 0x9 SLOAD PUSH1 0x1 PUSH1 0x1 PUSH1 0xA0 SHL SUB AND DUP2 JUMP JUMPDEST PUSH1 0xE PUSH1 0x20 MSTORE PUSH1 0x0 SWAP1 DUP2 MSTORE PUSH1 0x40 SWAP1 KECCAK256 DUP1 SLOAD PUSH1 0x1 DUP3 ADD SLOAD PUSH1 0x2 DUP4 ADD SLOAD PUSH1 0x3 SWAP1 SWAP4 ADD SLOAD SWAP2 SWAP3 SWAP1 SWAP2 DUP5 JUMP JUMPDEST PUSH1 0x2 SLOAD PUSH1 0x1 PUSH1 0x1 PUSH1 0xA0 SHL SUB AND DUP2 JUMP JUMPDEST PUSH1 0xE PUSH1 0x20 MSTORE PUSH32 0x8FC2E8690407E72047A336FF3B97A693A3F3D06B53E68867D6363C1F59D2262B SLOAD PUSH20 0x10D2105391D157D4149250D157D4115490D15395 PUSH1 0x62 SHL PUSH1 0x0 MSTORE PUSH32 0xE8BFEB1F5B41F435954928F3F356D22432C72A4BE6A5B562CFAAC6E642E7638B SLOAD PUSH1 0xA SLOAD PUSH2 0x121B SWAP1 DUP4 PUSH4 0xFFFFFFFF PUSH2 0x1690 AND JUMP JUMPDEST NUMBER LT ISZERO PUSH2 0x123A JUMPI PUSH1 0x40 MLOAD PUSH3 0x461BCD PUSH1 0xE5 SHL DUP2 MSTORE PUSH1 0x4 ADD PUSH2 0x564 SWAP1 PUSH2 0x207A JUMP JUMPDEST PUSH5 0x7072696365 PUSH1 0xD8 SHL PUSH1 0x0 MSTORE PUSH1 0xF PUSH1 0x20 MSTORE PUSH32 0x5A6043839BD1363E1698899E1C9B9591B5CAD9DCCCE5474DADD357959EAAAA4E SLOAD PUSH1 0x1 PUSH1 0x1 PUSH1 0xA0 SHL SUB AND CALLER EQ PUSH2 0x1294 JUMPI PUSH1 0x40 MLOAD PUSH3 0x461BCD PUSH1 0xE5 SHL DUP2 MSTORE PUSH1 0x4 ADD PUSH2 0x564 SWAP1 PUSH2 0x1EE1 JUMP JUMPDEST DUP5 DUP4 EQ PUSH2 0x12B3 JUMPI PUSH1 0x40 MLOAD PUSH3 0x461BCD PUSH1 0xE5 SHL DUP2 MSTORE PUSH1 0x4 ADD PUSH2 0x564 SWAP1 PUSH2 0x1F76 JUMP JUMPDEST PUSH1 0x0 JUMPDEST DUP6 DUP2 LT ISZERO PUSH2 0x14B1 JUMPI PUSH1 0x10 PUSH1 0x0 DUP9 DUP9 DUP5 DUP2 DUP2 LT PUSH2 0x12CE JUMPI INVALID JUMPDEST SWAP1 POP PUSH1 0x20 MUL ADD PUSH1 0x20 DUP2 ADD SWAP1 PUSH2 0x12E3 SWAP2 SWAP1 PUSH2 0x19A3 JUMP JUMPDEST PUSH1 0x1 PUSH1 0x1 PUSH1 0xA0 SHL SUB AND DUP2 MSTORE PUSH1 0x20 DUP2 ADD SWAP2 SWAP1 SWAP2 MSTORE PUSH1 0x40 ADD PUSH1 0x0 KECCAK256 SLOAD PUSH2 0x1342 JUMPI PUSH2 0x133D DUP8 DUP8 DUP4 DUP2 DUP2 LT PUSH2 0x1310 JUMPI INVALID JUMPDEST SWAP1 POP PUSH1 0x20 MUL ADD PUSH1 0x20 DUP2 ADD SWAP1 PUSH2 0x1325 SWAP2 SWAP1 PUSH2 0x19A3 JUMP JUMPDEST DUP7 DUP7 DUP5 DUP2 DUP2 LT PUSH2 0x1331 JUMPI INVALID JUMPDEST SWAP1 POP PUSH1 0x20 MUL ADD CALLDATALOAD PUSH2 0x17D8 JUMP JUMPDEST PUSH2 0x14A9 JUMP JUMPDEST PUSH1 0x0 PUSH1 0x10 PUSH1 0x0 DUP10 DUP10 DUP6 DUP2 DUP2 LT PUSH2 0x1354 JUMPI INVALID JUMPDEST SWAP1 POP PUSH1 0x20 MUL ADD PUSH1 0x20 DUP2 ADD SWAP1 PUSH2 0x1369 SWAP2 SWAP1 PUSH2 0x19A3 JUMP JUMPDEST PUSH1 0x1 PUSH1 0x1 PUSH1 0xA0 SHL SUB AND PUSH1 0x1 PUSH1 0x1 PUSH1 0xA0 SHL SUB AND DUP2 MSTORE PUSH1 0x20 ADD SWAP1 DUP2 MSTORE PUSH1 0x20 ADD PUSH1 0x0 KECCAK256 SLOAD SWAP1 POP DUP1 DUP7 DUP7 DUP5 DUP2 DUP2 LT PUSH2 0x1399 JUMPI INVALID JUMPDEST SWAP1 POP PUSH1 0x20 MUL ADD CALLDATALOAD GT ISZERO PUSH2 0x1432 JUMPI PUSH1 0x0 PUSH2 0x13CE PUSH2 0x13C1 PUSH2 0x2710 PUSH2 0xB26 DUP6 DUP9 PUSH4 0xFFFFFFFF PUSH2 0x15D2 AND JUMP JUMPDEST DUP4 SWAP1 PUSH4 0xFFFFFFFF PUSH2 0x1690 AND JUMP JUMPDEST SWAP1 POP PUSH2 0x142C DUP10 DUP10 DUP6 DUP2 DUP2 LT PUSH2 0x13DF JUMPI INVALID JUMPDEST SWAP1 POP PUSH1 0x20 MUL ADD PUSH1 0x20 DUP2 ADD SWAP1 PUSH2 0x13F4 SWAP2 SWAP1 PUSH2 0x19A3 JUMP JUMPDEST DUP3 DUP10 DUP10 DUP8 DUP2 DUP2 LT PUSH2 0x1401 JUMPI INVALID JUMPDEST SWAP1 POP PUSH1 0x20 MUL ADD CALLDATALOAD GT PUSH2 0x1425 JUMPI DUP9 DUP9 DUP7 DUP2 DUP2 LT PUSH2 0x1419 JUMPI INVALID JUMPDEST SWAP1 POP PUSH1 0x20 MUL ADD CALLDATALOAD PUSH2 0x1427 JUMP JUMPDEST DUP3 JUMPDEST PUSH2 0x17D8 JUMP JUMPDEST POP PUSH2 0x14A7 JUMP JUMPDEST PUSH1 0x0 PUSH2 0x145A PUSH2 0x144D PUSH2 0x2710 PUSH2 0xB26 DUP6 DUP9 PUSH4 0xFFFFFFFF PUSH2 0x15D2 AND JUMP JUMPDEST DUP4 SWAP1 PUSH4 0xFFFFFFFF PUSH2 0x164E AND JUMP JUMPDEST SWAP1 POP PUSH2 0x14A5 DUP10 DUP10 DUP6 DUP2 DUP2 LT PUSH2 0x146B JUMPI INVALID JUMPDEST SWAP1 POP PUSH1 0x20 MUL ADD PUSH1 0x20 DUP2 ADD SWAP1 PUSH2 0x1480 SWAP2 SWAP1 PUSH2 0x19A3 JUMP JUMPDEST DUP3 DUP10 DUP10 DUP8 DUP2 DUP2 LT PUSH2 0x148D JUMPI INVALID JUMPDEST SWAP1 POP PUSH1 0x20 MUL ADD CALLDATALOAD LT PUSH2 0x1425 JUMPI DUP9 DUP9 DUP7 DUP2 DUP2 LT PUSH2 0x1419 JUMPI INVALID JUMPDEST POP JUMPDEST POP JUMPDEST PUSH1 0x1 ADD PUSH2 0x12B6 JUMP JUMPDEST POP POP NUMBER PUSH1 0xA SSTORE POP POP POP POP POP JUMP JUMPDEST PUSH1 0x0 DUP1 PUSH1 0x0 DUP1 PUSH2 0x14CC PUSH2 0x1888 JUMP JUMPDEST POP POP POP POP PUSH1 0x1 PUSH1 0x1 PUSH1 0xA0 SHL SUB SWAP3 SWAP1 SWAP3 AND PUSH1 0x0 SWAP1 DUP2 MSTORE PUSH1 0xD PUSH1 0x20 SWAP1 DUP2 MSTORE PUSH1 0x40 DUP1 DUP4 KECCAK256 SWAP4 DUP4 MSTORE SWAP3 DUP2 MSTORE SWAP1 DUP3 SWAP1 KECCAK256 DUP3 MLOAD PUSH1 0x80 DUP2 ADD DUP5 MSTORE DUP2 SLOAD DUP1 DUP3 MSTORE PUSH1 0x1 DUP4 ADD SLOAD SWAP4 DUP3 ADD DUP5 SWAP1 MSTORE PUSH1 0x2 DUP4 ADD SLOAD SWAP5 DUP3 ADD DUP6 SWAP1 MSTORE PUSH1 0x3 SWAP1 SWAP3 ADD SLOAD PUSH1 0x60 SWAP1 SWAP2 ADD DUP2 SWAP1 MSTORE SWAP1 SWAP5 SWAP2 SWAP4 POP SWAP1 JUMP JUMPDEST PUSH1 0xD PUSH1 0x20 SWAP1 DUP2 MSTORE PUSH1 0x0 SWAP3 DUP4 MSTORE PUSH1 0x40 DUP1 DUP5 KECCAK256 SWAP1 SWAP2 MSTORE SWAP1 DUP3 MSTORE SWAP1 KECCAK256 DUP1 SLOAD PUSH1 0x1 DUP3 ADD SLOAD PUSH1 0x2 DUP4 ADD SLOAD PUSH1 0x3 SWAP1 SWAP4 ADD SLOAD SWAP2 SWAP3 SWAP1 SWAP2 DUP5 JUMP JUMPDEST PUSH1 0xA SLOAD DUP2 JUMP JUMPDEST PUSH1 0x1 PUSH1 0x1 PUSH1 0xA0 SHL SUB DUP4 AND PUSH1 0x0 SWAP1 DUP2 MSTORE PUSH1 0xD PUSH1 0x20 SWAP1 DUP2 MSTORE PUSH1 0x40 DUP1 DUP4 KECCAK256 DUP6 DUP5 MSTORE SWAP1 SWAP2 MSTORE SWAP1 DUP2 SWAP1 KECCAK256 PUSH1 0x3 ADD DUP3 SWAP1 SSTORE MLOAD PUSH32 0x80C7BC50A3B728DB2AEDEB4AF1B647E8BECA4313A5AFA10451AF90BD46AFB3F0 SWAP1 PUSH2 0x15C5 SWAP1 DUP6 SWAP1 DUP6 SWAP1 DUP6 SWAP1 PUSH2 0x1E04 JUMP JUMPDEST PUSH1 0x40 MLOAD DUP1 SWAP2 SUB SWAP1 LOG1 POP POP POP JUMP JUMPDEST PUSH1 0x0 DUP3 PUSH2 0x15E1 JUMPI POP PUSH1 0x0 PUSH2 0x7EC JUMP JUMPDEST DUP3 DUP3 MUL DUP3 DUP5 DUP3 DUP2 PUSH2 0x15EE JUMPI INVALID JUMPDEST DIV EQ PUSH2 0x1009 JUMPI PUSH1 0x40 MLOAD PUSH3 0x461BCD PUSH1 0xE5 SHL DUP2 MSTORE PUSH1 0x4 ADD PUSH2 0x564 SWAP1 PUSH2 0x1FE4 JUMP JUMPDEST PUSH1 0x0 PUSH2 0x1009 DUP4 DUP4 PUSH1 0x40 MLOAD DUP1 PUSH1 0x40 ADD PUSH1 0x40 MSTORE DUP1 PUSH1 0x1A DUP2 MSTORE PUSH1 0x20 ADD PUSH32 0x536166654D6174683A206469766973696F6E206279207A65726F000000000000 DUP2 MSTORE POP PUSH2 0x1825 JUMP JUMPDEST PUSH1 0x0 PUSH2 0x1009 DUP4 DUP4 PUSH1 0x40 MLOAD DUP1 PUSH1 0x40 ADD PUSH1 0x40 MSTORE DUP1 PUSH1 0x1E DUP2 MSTORE PUSH1 0x20 ADD PUSH32 0x536166654D6174683A207375627472616374696F6E206F766572666C6F770000 DUP2 MSTORE POP PUSH2 0x185C JUMP JUMPDEST PUSH1 0x0 DUP3 DUP3 ADD DUP4 DUP2 LT ISZERO PUSH2 0x1009 JUMPI PUSH1 0x40 MLOAD PUSH3 0x461BCD PUSH1 0xE5 SHL DUP2 MSTORE PUSH1 0x4 ADD PUSH2 0x564 SWAP1 PUSH2 0x1F11 JUMP JUMPDEST PUSH1 0x40 DUP1 MLOAD PUSH1 0x80 DUP2 ADD DUP3 MSTORE DUP6 DUP2 MSTORE PUSH1 0x20 DUP1 DUP3 ADD DUP7 DUP2 MSTORE DUP3 DUP5 ADD DUP7 DUP2 MSTORE PUSH1 0x60 DUP5 ADD DUP7 DUP2 MSTORE PUSH1 0x1 PUSH1 0x1 PUSH1 0xA0 SHL SUB DUP13 AND PUSH1 0x0 SWAP1 DUP2 MSTORE PUSH1 0xD DUP6 MSTORE DUP7 DUP2 KECCAK256 DUP13 DUP3 MSTORE SWAP1 SWAP5 MSTORE SWAP3 DUP6 SWAP1 KECCAK256 SWAP4 MLOAD DUP5 SSTORE SWAP1 MLOAD PUSH1 0x1 DUP5 ADD SSTORE MLOAD PUSH1 0x2 DUP4 ADD SSTORE MLOAD PUSH1 0x3 SWAP1 SWAP2 ADD SSTORE MLOAD PUSH32 0x80C7BC50A3B728DB2AEDEB4AF1B647E8BECA4313A5AFA10451AF90BD46AFB3F0 SWAP1 PUSH2 0x1741 SWAP1 DUP9 SWAP1 DUP9 SWAP1 DUP6 SWAP1 PUSH2 0x1E04 JUMP JUMPDEST PUSH1 0x40 MLOAD DUP1 SWAP2 SUB SWAP1 LOG1 POP POP POP POP POP POP JUMP JUMPDEST PUSH1 0x40 DUP1 MLOAD PUSH1 0x80 DUP2 ADD DUP3 MSTORE DUP6 DUP2 MSTORE PUSH1 0x20 DUP1 DUP3 ADD DUP7 DUP2 MSTORE DUP3 DUP5 ADD DUP7 DUP2 MSTORE PUSH1 0x60 DUP5 ADD DUP7 DUP2 MSTORE PUSH1 0x0 DUP12 DUP2 MSTORE PUSH1 0xE SWAP1 SWAP5 MSTORE SWAP3 DUP6 SWAP1 KECCAK256 SWAP4 MLOAD DUP5 SSTORE SWAP1 MLOAD PUSH1 0x1 DUP5 ADD SSTORE MLOAD PUSH1 0x2 DUP4 ADD SSTORE MLOAD PUSH1 0x3 SWAP1 SWAP2 ADD SSTORE MLOAD PUSH32 0xA7F64E425251323AFFBEE8E5836AFFCDC8ADFA374A7E9EB294EFB263F82AA606 SWAP1 PUSH2 0x17C9 SWAP1 DUP8 SWAP1 DUP5 SWAP1 PUSH2 0x1E49 JUMP JUMPDEST PUSH1 0x40 MLOAD DUP1 SWAP2 SUB SWAP1 LOG1 POP POP POP POP POP JUMP JUMPDEST PUSH1 0x1 PUSH1 0x1 PUSH1 0xA0 SHL SUB DUP3 AND PUSH1 0x0 SWAP1 DUP2 MSTORE PUSH1 0x10 PUSH1 0x20 MSTORE PUSH1 0x40 SWAP1 DUP2 SWAP1 KECCAK256 DUP3 SWAP1 SSTORE MLOAD PUSH32 0xFB97D390102D99A2A0210C7DA4D6E15528CA897324A726106755393058AE2719 SWAP1 PUSH2 0x5BA SWAP1 DUP5 SWAP1 DUP5 SWAP1 PUSH2 0x1E25 JUMP JUMPDEST PUSH1 0x0 DUP2 DUP4 PUSH2 0x1846 JUMPI PUSH1 0x40 MLOAD PUSH3 0x461BCD PUSH1 0xE5 SHL DUP2 MSTORE PUSH1 0x4 ADD PUSH2 0x564 SWAP2 SWAP1 PUSH2 0x1E57 JUMP JUMPDEST POP PUSH1 0x0 DUP4 DUP6 DUP2 PUSH2 0x1852 JUMPI INVALID JUMPDEST DIV SWAP6 SWAP5 POP POP POP POP POP JUMP JUMPDEST PUSH1 0x0 DUP2 DUP5 DUP5 GT ISZERO PUSH2 0x1880 JUMPI PUSH1 0x40 MLOAD PUSH3 0x461BCD PUSH1 0xE5 SHL DUP2 MSTORE PUSH1 0x4 ADD PUSH2 0x564 SWAP2 SWAP1 PUSH2 0x1E57 JUMP JUMPDEST POP POP POP SWAP1 SUB SWAP1 JUMP JUMPDEST PUSH1 0x40 MLOAD DUP1 PUSH1 0x80 ADD PUSH1 0x40 MSTORE DUP1 PUSH1 0x0 DUP2 MSTORE PUSH1 0x20 ADD PUSH1 0x0 DUP2 MSTORE PUSH1 0x20 ADD PUSH1 0x0 DUP2 MSTORE PUSH1 0x20 ADD PUSH1 0x0 DUP2 MSTORE POP SWAP1 JUMP JUMPDEST DUP1 CALLDATALOAD PUSH1 0x1 PUSH1 0x1 PUSH1 0xA0 SHL SUB DUP2 AND DUP2 EQ PUSH2 0x7EC JUMPI PUSH1 0x0 DUP1 REVERT JUMPDEST PUSH1 0x0 DUP1 DUP4 PUSH1 0x1F DUP5 ADD SLT PUSH2 0x18D8 JUMPI DUP2 DUP3 REVERT JUMPDEST POP DUP2 CALLDATALOAD PUSH8 0xFFFFFFFFFFFFFFFF DUP2 GT ISZERO PUSH2 0x18EF JUMPI DUP2 DUP3 REVERT JUMPDEST PUSH1 0x20 DUP4 ADD SWAP2 POP DUP4 PUSH1 0x20 DUP1 DUP4 MUL DUP6 ADD ADD GT ISZERO PUSH2 0x1909 JUMPI PUSH1 0x0 DUP1 REVERT JUMPDEST SWAP3 POP SWAP3 SWAP1 POP JUMP JUMPDEST PUSH1 0x0 DUP3 PUSH1 0x1F DUP4 ADD SLT PUSH2 0x1920 JUMPI DUP1 DUP2 REVERT JUMPDEST DUP2 CALLDATALOAD PUSH8 0xFFFFFFFFFFFFFFFF DUP1 DUP3 GT ISZERO PUSH2 0x1937 JUMPI DUP3 DUP4 REVERT JUMPDEST PUSH1 0x20 DUP1 DUP4 MUL PUSH1 0x40 MLOAD DUP3 DUP3 DUP3 ADD ADD DUP2 DUP2 LT DUP6 DUP3 GT OR ISZERO PUSH2 0x1954 JUMPI DUP7 DUP8 REVERT JUMPDEST PUSH1 0x40 MSTORE DUP5 DUP2 MSTORE SWAP5 POP DUP2 DUP6 ADD SWAP3 POP DUP6 DUP3 ADD DUP2 DUP8 ADD DUP4 ADD DUP9 LT ISZERO PUSH2 0x1975 JUMPI PUSH1 0x0 DUP1 REVERT JUMPDEST PUSH1 0x0 SWAP2 POP JUMPDEST DUP5 DUP3 LT ISZERO PUSH2 0x1998 JUMPI DUP1 CALLDATALOAD DUP5 MSTORE SWAP3 DUP3 ADD SWAP3 PUSH1 0x1 SWAP2 SWAP1 SWAP2 ADD SWAP1 DUP3 ADD PUSH2 0x197A JUMP JUMPDEST POP POP POP POP POP SWAP3 SWAP2 POP POP JUMP JUMPDEST PUSH1 0x0 PUSH1 0x20 DUP3 DUP5 SUB SLT ISZERO PUSH2 0x19B4 JUMPI DUP1 DUP2 REVERT JUMPDEST PUSH2 0x1009 DUP4 DUP4 PUSH2 0x18B0 JUMP JUMPDEST PUSH1 0x0 DUP1 PUSH1 0x0 DUP1 PUSH1 0x0 DUP1 PUSH1 0x0 PUSH1 0xE0 DUP9 DUP11 SUB SLT ISZERO PUSH2 0x19D8 JUMPI DUP3 DUP4 REVERT JUMPDEST DUP8 CALLDATALOAD PUSH2 0x19E3 DUP2 PUSH2 0x20F7 JUMP JUMPDEST SWAP7 POP PUSH1 0x20 DUP9 ADD CALLDATALOAD PUSH2 0x19F3 DUP2 PUSH2 0x20F7 JUMP JUMPDEST SWAP6 POP PUSH1 0x40 DUP9 ADD CALLDATALOAD PUSH2 0x1A03 DUP2 PUSH2 0x20F7 JUMP JUMPDEST SWAP5 POP PUSH1 0x60 DUP9 ADD CALLDATALOAD PUSH2 0x1A13 DUP2 PUSH2 0x20F7 JUMP JUMPDEST SWAP4 POP PUSH1 0x80 DUP9 ADD CALLDATALOAD PUSH2 0x1A23 DUP2 PUSH2 0x20F7 JUMP JUMPDEST SWAP3 POP PUSH1 0xA0 DUP9 ADD CALLDATALOAD PUSH2 0x1A33 DUP2 PUSH2 0x20F7 JUMP JUMPDEST SWAP2 POP PUSH1 0xC0 DUP9 ADD CALLDATALOAD PUSH2 0x1A43 DUP2 PUSH2 0x20F7 JUMP JUMPDEST DUP1 SWAP2 POP POP SWAP3 SWAP6 SWAP9 SWAP2 SWAP5 SWAP8 POP SWAP3 SWAP6 POP JUMP JUMPDEST PUSH1 0x0 DUP1 PUSH1 0x0 PUSH1 0x60 DUP5 DUP7 SUB SLT ISZERO PUSH2 0x1A67 JUMPI DUP3 DUP4 REVERT JUMPDEST DUP4 CALLDATALOAD PUSH2 0x1A72 DUP2 PUSH2 0x20F7 JUMP JUMPDEST SWAP3 POP PUSH1 0x20 DUP5 ADD CALLDATALOAD PUSH2 0x1A82 DUP2 PUSH2 0x20F7 JUMP JUMPDEST SWAP3 SWAP6 SWAP3 SWAP5 POP POP POP PUSH1 0x40 SWAP2 SWAP1 SWAP2 ADD CALLDATALOAD SWAP1 JUMP JUMPDEST PUSH1 0x0 DUP1 PUSH1 0x0 DUP1 PUSH1 0x80 DUP6 DUP8 SUB SLT ISZERO PUSH2 0x1AA8 JUMPI DUP4 DUP5 REVERT JUMPDEST PUSH2 0x1AB2 DUP7 DUP7 PUSH2 0x18B0 JUMP JUMPDEST SWAP4 POP PUSH1 0x20 DUP6 ADD CALLDATALOAD PUSH8 0xFFFFFFFFFFFFFFFF DUP1 DUP3 GT ISZERO PUSH2 0x1ACE JUMPI DUP5 DUP6 REVERT JUMPDEST PUSH2 0x1ADA DUP9 DUP4 DUP10 ADD PUSH2 0x1910 JUMP JUMPDEST SWAP5 POP PUSH1 0x40 DUP8 ADD CALLDATALOAD SWAP2 POP DUP1 DUP3 GT ISZERO PUSH2 0x1AEF JUMPI DUP4 DUP5 REVERT JUMPDEST PUSH2 0x1AFB DUP9 DUP4 DUP10 ADD PUSH2 0x1910 JUMP JUMPDEST SWAP4 POP PUSH1 0x60 DUP8 ADD CALLDATALOAD SWAP2 POP DUP1 DUP3 GT ISZERO PUSH2 0x1B10 JUMPI DUP3 DUP4 REVERT JUMPDEST POP PUSH2 0x1B1D DUP8 DUP3 DUP9 ADD PUSH2 0x1910 JUMP JUMPDEST SWAP2 POP POP SWAP3 SWAP6 SWAP2 SWAP5 POP SWAP3 POP JUMP JUMPDEST PUSH1 0x0 DUP1 PUSH1 0x40 DUP4 DUP6 SUB SLT ISZERO PUSH2 0x1B3B JUMPI DUP2 DUP3 REVERT JUMPDEST PUSH2 0x1B45 DUP5 DUP5 PUSH2 0x18B0 JUMP JUMPDEST SWAP5 PUSH1 0x20 SWAP4 SWAP1 SWAP4 ADD CALLDATALOAD SWAP4 POP POP POP JUMP JUMPDEST PUSH1 0x0 DUP1 PUSH1 0x0 PUSH1 0x60 DUP5 DUP7 SUB SLT ISZERO PUSH2 0x1B67 JUMPI DUP3 DUP4 REVERT JUMPDEST DUP4 CALLDATALOAD PUSH2 0x1B72 DUP2 PUSH2 0x20F7 JUMP JUMPDEST SWAP6 PUSH1 0x20 DUP6 ADD CALLDATALOAD SWAP6 POP PUSH1 0x40 SWAP1 SWAP5 ADD CALLDATALOAD SWAP4 SWAP3 POP POP POP JUMP JUMPDEST PUSH1 0x0 DUP1 PUSH1 0x0 DUP1 PUSH1 0x0 DUP1 PUSH1 0xC0 DUP8 DUP10 SUB SLT ISZERO PUSH2 0x1B9F JUMPI DUP2 DUP3 REVERT JUMPDEST DUP7 CALLDATALOAD PUSH2 0x1BAA DUP2 PUSH2 0x20F7 JUMP JUMPDEST SWAP9 PUSH1 0x20 DUP9 ADD CALLDATALOAD SWAP9 POP PUSH1 0x40 DUP9 ADD CALLDATALOAD SWAP8 PUSH1 0x60 DUP2 ADD CALLDATALOAD SWAP8 POP PUSH1 0x80 DUP2 ADD CALLDATALOAD SWAP7 POP PUSH1 0xA0 ADD CALLDATALOAD SWAP5 POP SWAP3 POP POP POP JUMP JUMPDEST PUSH1 0x0 DUP1 PUSH1 0x0 PUSH1 0x60 DUP5 DUP7 SUB SLT ISZERO PUSH2 0x1BE6 JUMPI DUP3 DUP4 REVERT JUMPDEST PUSH2 0x1B72 DUP6 DUP6 PUSH2 0x18B0 JUMP JUMPDEST PUSH1 0x0 DUP1 PUSH1 0x0 DUP1 PUSH1 0x40 DUP6 DUP8 SUB SLT ISZERO PUSH2 0x1C05 JUMPI DUP4 DUP5 REVERT JUMPDEST DUP5 CALLDATALOAD PUSH8 0xFFFFFFFFFFFFFFFF DUP1 DUP3 GT ISZERO PUSH2 0x1C1C JUMPI DUP6 DUP7 REVERT JUMPDEST PUSH2 0x1C28 DUP9 DUP4 DUP10 ADD PUSH2 0x18C7 JUMP JUMPDEST SWAP1 SWAP7 POP SWAP5 POP PUSH1 0x20 DUP8 ADD CALLDATALOAD SWAP2 POP DUP1 DUP3 GT ISZERO PUSH2 0x1C40 JUMPI DUP4 DUP5 REVERT JUMPDEST POP PUSH2 0x1C4D DUP8 DUP3 DUP9 ADD PUSH2 0x18C7 JUMP JUMPDEST SWAP6 SWAP9 SWAP5 SWAP8 POP SWAP6 POP POP POP POP JUMP JUMPDEST PUSH1 0x0 DUP1 PUSH1 0x0 DUP1 PUSH1 0x40 DUP6 DUP8 SUB SLT ISZERO PUSH2 0x1C6E JUMPI DUP2 DUP3 REVERT JUMPDEST DUP5 CALLDATALOAD PUSH8 0xFFFFFFFFFFFFFFFF DUP1 DUP3 GT ISZERO PUSH2 0x1C1C JUMPI DUP4 DUP5 REVERT JUMPDEST PUSH1 0x0 PUSH1 0x20 DUP3 DUP5 SUB SLT ISZERO PUSH2 0x1C96 JUMPI DUP1 DUP2 REVERT JUMPDEST POP CALLDATALOAD SWAP2 SWAP1 POP JUMP JUMPDEST PUSH1 0x0 DUP1 PUSH1 0x40 DUP4 DUP6 SUB SLT ISZERO PUSH2 0x1CAF JUMPI DUP2 DUP3 REVERT JUMPDEST DUP3 CALLDATALOAD SWAP2 POP PUSH1 0x20 DUP4 ADD CALLDATALOAD PUSH2 0x1CC1 DUP2 PUSH2 0x20F7 JUMP JUMPDEST DUP1 SWAP2 POP POP SWAP3 POP SWAP3 SWAP1 POP JUMP JUMPDEST PUSH1 0x0 DUP1 PUSH1 0x40 DUP4 DUP6 SUB SLT ISZERO PUSH2 0x1CDE JUMPI DUP2 DUP3 REVERT JUMPDEST POP POP DUP1 CALLDATALOAD SWAP3 PUSH1 0x20 SWAP1 SWAP2 ADD CALLDATALOAD SWAP2 POP JUMP JUMPDEST PUSH1 0x0 DUP1 PUSH1 0x0 DUP1 PUSH1 0x0 PUSH1 0xA0 DUP7 DUP9 SUB SLT ISZERO PUSH2 0x1D04 JUMPI DUP3 DUP4 REVERT JUMPDEST POP POP DUP4 CALLDATALOAD SWAP6 PUSH1 0x20 DUP6 ADD CALLDATALOAD SWAP6 POP PUSH1 0x40 DUP6 ADD CALLDATALOAD SWAP5 PUSH1 0x60 DUP2 ADD CALLDATALOAD SWAP5 POP PUSH1 0x80 ADD CALLDATALOAD SWAP3 POP SWAP1 POP JUMP JUMPDEST PUSH1 0x0 PUSH1 0x20 DUP3 DUP5 SUB SLT ISZERO PUSH2 0x1D38 JUMPI DUP1 DUP2 REVERT JUMPDEST DUP2 MLOAD PUSH1 0xFF DUP2 AND DUP2 EQ PUSH2 0x1009 JUMPI DUP2 DUP3 REVERT JUMPDEST PUSH1 0x0 DUP2 MLOAD DUP1 DUP5 MSTORE PUSH1 0x20 DUP1 DUP6 ADD SWAP5 POP DUP1 DUP5 ADD DUP4 JUMPDEST DUP4 DUP2 LT ISZERO PUSH2 0x1D77 JUMPI DUP2 MLOAD DUP8 MSTORE SWAP6 DUP3 ADD SWAP6 SWAP1 DUP3 ADD SWAP1 PUSH1 0x1 ADD PUSH2 0x1D5B JUMP JUMPDEST POP SWAP5 SWAP6 SWAP5 POP POP POP POP POP JUMP JUMPDEST PUSH1 0x1 PUSH1 0x1 PUSH1 0xA0 SHL SUB SWAP2 SWAP1 SWAP2 AND DUP2 MSTORE PUSH1 0x20 ADD SWAP1 JUMP JUMPDEST PUSH1 0x1 PUSH1 0x1 PUSH1 0xA0 SHL SUB SWAP3 DUP4 AND DUP2 MSTORE SWAP2 AND PUSH1 0x20 DUP3 ADD MSTORE PUSH1 0x40 ADD SWAP1 JUMP JUMPDEST PUSH1 0x1 PUSH1 0x1 PUSH1 0xA0 SHL SUB DUP6 AND DUP2 MSTORE PUSH1 0x80 PUSH1 0x20 DUP3 ADD DUP2 SWAP1 MSTORE PUSH1 0x0 SWAP1 PUSH2 0x1DD4 SWAP1 DUP4 ADD DUP7 PUSH2 0x1D48 JUMP JUMPDEST DUP3 DUP2 SUB PUSH1 0x40 DUP5 ADD MSTORE PUSH2 0x1DE6 DUP2 DUP7 PUSH2 0x1D48 JUMP JUMPDEST DUP4 DUP2 SUB PUSH1 0x60 DUP6 ADD MSTORE PUSH2 0x1DF8 DUP2 DUP7 PUSH2 0x1D48 JUMP JUMPDEST SWAP9 SWAP8 POP POP POP POP POP POP POP POP JUMP JUMPDEST PUSH1 0x1 PUSH1 0x1 PUSH1 0xA0 SHL SUB SWAP4 SWAP1 SWAP4 AND DUP4 MSTORE PUSH1 0x20 DUP4 ADD SWAP2 SWAP1 SWAP2 MSTORE PUSH1 0x40 DUP3 ADD MSTORE PUSH1 0x60 ADD SWAP1 JUMP JUMPDEST PUSH1 0x1 PUSH1 0x1 PUSH1 0xA0 SHL SUB SWAP3 SWAP1 SWAP3 AND DUP3 MSTORE PUSH1 0x20 DUP3 ADD MSTORE PUSH1 0x40 ADD SWAP1 JUMP JUMPDEST SWAP1 ISZERO ISZERO DUP2 MSTORE PUSH1 0x20 ADD SWAP1 JUMP JUMPDEST SWAP2 DUP3 MSTORE PUSH1 0x20 DUP3 ADD MSTORE PUSH1 0x40 ADD SWAP1 JUMP JUMPDEST PUSH1 0x0 PUSH1 0x20 DUP1 DUP4 MSTORE DUP4 MLOAD DUP1 DUP3 DUP6 ADD MSTORE DUP3 JUMPDEST DUP2 DUP2 LT ISZERO PUSH2 0x1E83 JUMPI DUP6 DUP2 ADD DUP4 ADD MLOAD DUP6 DUP3 ADD PUSH1 0x40 ADD MSTORE DUP3 ADD PUSH2 0x1E67 JUMP JUMPDEST DUP2 DUP2 GT ISZERO PUSH2 0x1E94 JUMPI DUP4 PUSH1 0x40 DUP4 DUP8 ADD ADD MSTORE JUMPDEST POP PUSH1 0x1F ADD PUSH1 0x1F NOT AND SWAP3 SWAP1 SWAP3 ADD PUSH1 0x40 ADD SWAP4 SWAP3 POP POP POP JUMP JUMPDEST PUSH1 0x20 DUP1 DUP3 MSTORE PUSH1 0x17 SWAP1 DUP3 ADD MSTORE PUSH32 0x504F4F4C2056414C554520484153204E4F5420494E4954000000000000000000 PUSH1 0x40 DUP3 ADD MSTORE PUSH1 0x60 ADD SWAP1 JUMP JUMPDEST PUSH1 0x20 DUP1 DUP3 MSTORE PUSH1 0x16 SWAP1 DUP3 ADD MSTORE PUSH22 0x2130B1B59D1021B7B73334B3902327A92124A22222A7 PUSH1 0x51 SHL PUSH1 0x40 DUP3 ADD MSTORE PUSH1 0x60 ADD SWAP1 JUMP JUMPDEST PUSH1 0x20 DUP1 DUP3 MSTORE PUSH1 0x1B SWAP1 DUP3 ADD MSTORE PUSH32 0x536166654D6174683A206164646974696F6E206F766572666C6F770000000000 PUSH1 0x40 DUP3 ADD MSTORE PUSH1 0x60 ADD SWAP1 JUMP JUMPDEST PUSH1 0x20 DUP1 DUP3 MSTORE PUSH1 0x14 SWAP1 DUP3 ADD MSTORE PUSH20 0x2130B1B59D1027A7262C902222AB22A627A822A9 PUSH1 0x61 SHL PUSH1 0x40 DUP3 ADD MSTORE PUSH1 0x60 ADD SWAP1 JUMP JUMPDEST PUSH1 0x20 DUP1 DUP3 MSTORE PUSH1 0x1C SWAP1 DUP3 ADD MSTORE PUSH32 0x4261636B3A20505249434553204C454E475448204D49534D4154434800000000 PUSH1 0x40 DUP3 ADD MSTORE PUSH1 0x60 ADD SWAP1 JUMP JUMPDEST PUSH1 0x20 DUP1 DUP3 MSTORE PUSH1 0x1D SWAP1 DUP3 ADD MSTORE PUSH32 0x4261636B3A2057414C4C455453204C454E475448204D49534D41544348000000 PUSH1 0x40 DUP3 ADD MSTORE PUSH1 0x60 ADD SWAP1 JUMP JUMPDEST PUSH1 0x20 DUP1 DUP3 MSTORE PUSH1 0x21 SWAP1 DUP3 ADD MSTORE PUSH32 0x536166654D6174683A206D756C7469706C69636174696F6E206F766572666C6F PUSH1 0x40 DUP3 ADD MSTORE PUSH1 0x77 PUSH1 0xF8 SHL PUSH1 0x60 DUP3 ADD MSTORE PUSH1 0x80 ADD SWAP1 JUMP JUMPDEST PUSH1 0x20 DUP1 DUP3 MSTORE PUSH1 0x12 SWAP1 DUP3 ADD MSTORE PUSH18 0x159053155148121054C81393D50812539255 PUSH1 0x72 SHL PUSH1 0x40 DUP3 ADD MSTORE PUSH1 0x60 ADD SWAP1 JUMP JUMPDEST PUSH1 0x20 DUP1 DUP3 MSTORE PUSH1 0xF SWAP1 DUP3 ADD MSTORE PUSH15 0x2130B1B59D102327A92124A22222A7 PUSH1 0x89 SHL PUSH1 0x40 DUP3 ADD MSTORE PUSH1 0x60 ADD SWAP1 JUMP JUMPDEST PUSH1 0x20 DUP1 DUP3 MSTORE PUSH1 0x14 SWAP1 DUP3 ADD MSTORE PUSH20 0x2130B1B59D10283934B1B290223AB930BA34B7B7 PUSH1 0x61 SHL PUSH1 0x40 DUP3 ADD MSTORE PUSH1 0x60 ADD SWAP1 JUMP JUMPDEST PUSH1 0x20 DUP1 DUP3 MSTORE PUSH1 0x11 SWAP1 DUP3 ADD MSTORE PUSH17 0x5052494345204E4F5420534554204E4F57 PUSH1 0x78 SHL PUSH1 0x40 DUP3 ADD MSTORE PUSH1 0x60 ADD SWAP1 JUMP JUMPDEST SWAP1 DUP2 MSTORE PUSH1 0x20 ADD SWAP1 JUMP JUMPDEST SWAP4 DUP5 MSTORE PUSH1 0x20 DUP5 ADD SWAP3 SWAP1 SWAP3 MSTORE PUSH1 0x40 DUP4 ADD MSTORE PUSH1 0x60 DUP3 ADD MSTORE PUSH1 0x80 ADD SWAP1 JUMP JUMPDEST PUSH1 0x1 PUSH1 0x1 PUSH1 0xA0 SHL SUB DUP2 AND DUP2 EQ PUSH2 0x210C JUMPI PUSH1 0x0 DUP1 REVERT JUMPDEST POP JUMP INVALID LOG2 PUSH5 0x6970667358 0x22 SLT KECCAK256 SELFDESTRUCT 0xC6 0xC9 DUP11 LOG1 DUP3 0xEE RETURN 0x5F DIV STATICCALL 0x25 0x5F MOD 0x2F SHR 0xD8 SWAP9 0xD4 DUP12 JUMPDEST SSTORE PUSH24 0xF7704C341EDF615CF764736F6C6343000608003300000000 "
        }
    },
    "humanReadableAbi": [
        "constructor()",
        "event DeveloperChange(address oldValue, address newValue)",
        "event InterestChange(address pool, uint256[] params1, uint256[] params2, uint256[] params3)",
        "event ParameterChange(bytes32 key, uint256 value)",
        "event PoolParameterChange(address pool, bytes32 key, uint256 value)",
        "event PriceChange(address token, uint256 value)",
        "function DAY() view returns(uint256)",
        "function HOUR() view returns(uint256)",
        "function WETH() view returns(address)",
        "function calculateInterestRate(address pool, uint256 totalBorrow, uint256 totalSupply) view returns(uint256)",
        "function changeDeveloper(address _developer)",
        "function convertTokenAmount(address _fromToken, address _toToken, uint256 _fromAmount) view returns(uint256 toAmount)",
        "function developer() view returns(address)",
        "function getParams(bytes32 _key) view returns(uint256, uint256, uint256, uint256)",
        "function getPoolParams(address _pool, bytes32 _key) view returns(uint256, uint256, uint256, uint256)",
        "function getPoolValue(address _pool, bytes32 _key) view returns(uint256)",
        "function getValue(bytes32 _key) view returns(uint256)",
        "function governor() view returns(address)",
        "function hasInit(bytes32) view returns(bool)",
        "function hasInitPool(bytes32, address) view returns(bool)",
        "function initialize(address _platform, address _poolFactory, address _pairFactory, address _governor, address _WETH, address _platformToken, address _mainReward)",
        "function interestParams(address, uint256) view returns(uint256 base, uint256 position, uint256 ratio, uint256 positive)",
        "function lastPriceBlock() view returns(uint256)",
        "function mainReward() view returns(address)",
        "function owner() view returns(address)",
        "function pairFactory() view returns(address)",
        "function params(bytes32) view returns(uint256 min, uint256 max, uint256 span, uint256 value)",
        "function platform() view returns(address)",
        "function platformToken() view returns(address)",
        "function poolFactory() view returns(address)",
        "function poolParams(address, bytes32) view returns(uint256 min, uint256 max, uint256 span, uint256 value)",
        "function prices(address) view returns(uint256)",
        "function setInterestParams(address pool, uint256[] params1, uint256[] params2, uint256[] params3)",
        "function setParams(bytes32 _key, uint256 _min, uint256 _max, uint256 _span, uint256 _value)",
        "function setPoolParams(address _pool, bytes32 _key, uint256 _min, uint256 _max, uint256 _span, uint256 _value)",
        "function setPoolValue(address _pool, bytes32 _key, uint256 _value)",
        "function setTokenPrice(address[] _tokens, uint256[] _prices)",
        "function setValue(bytes32 _key, uint256 _value)",
        "function setWallets(bytes32[] _names, address[] _wallets)",
        "function swapper() view returns(address)",
        "function wallets(bytes32) view returns(address)"
    ]
}